:100000006F00402C130000001300000013000000DC
:100010001300000013000000130000001300000094
:100020001300000013000000130000001300000084
:08003000130000007300100032
:100038000000000000000000580200005A02000002
:10004800000000005C02000000000000000000004A
:100058005E020000600200000000000000000000D6
:1000680046030000000000006402000000000000D9
:1000780066020000680200006A0200006C020000CC
:100088006E0200007002000072020000740200009C
:1000980076020000780200007A0200007C0200006C
:1000A8007E0200008002000082020000840200003C
:1000B80086020000880200008A0200008C0200000C
:1000C8008E020000900200009202000094020000DC
:1000D80096020000980200009A0200009C020000AC
:1000E8009E020000AE050000A2020000A40200006B
:1000F800A6020000A8020000AA020000AC0200004C
:10010800AE020000A4030000520400000005000035
:10011800B6020000B8020000BA020000BC020000EB
:10012800BE020000C0020000C20200000000000081
:080138000000000000000000BF
:100140003D432A876373C3029377F700BDEFADE5A4
:10015000937606FF3D8ABA960CC34CC30CC74CC7B6
:100160004107E36BD7FE11E28280B306C3408A06E3
:100170009702000096966780A6002307B700A306A3
:10018000B7002306B700A305B7002305B700A304F3
:10019000B7002304B700A303B7002303B700A302EB
:1001A000B7002302B700A301B7002301B700A300E3
:1001B000B7002300B700828093F5F50F9396850072
:1001C000D58D93960501D58D61B79396270097023B
:1001D000000096968682E78086FA9680C1171D8F6A
:1001E0003E96E374C3F8A5B7011122CE0010232672
:1001F000A4FEAE872315F4FE8357A4FE93F7F71FE2
:100200001397070141838327C4FEDAA301007244D8
:1002100005618280797122D60018232EA4FCAE8756
:10022000231DF4FC232604FE8327C4FD9E2313977D
:10023000070141838357A4FDF98FC207C18389C792
:1002400085472326F4FE19A0232604FE8327C4FE37
:100250003E8532544561828001A001A001A001A029
:1002600001A001A001A001A001A001A001A001A086
:1002700001A001A001A001A001A001A001A001A076
:1002800001A001A001A001A001A001A001A001A066
:1002900001A001A001A001A001A001A001A001A056
:1002A00001A001A001A001A001A001A001A001A046
:1002B00001A001A001A001A001A001A001A001A036
:1002C00001A001A0970100209381C159175100207E
:1002D000130141D3172500001305055F9705002082
:1002E000938545D21386818063FAC5008322050079
:1002F00023A0550011059105E3EAC5FE1385818011
:100300009385C1886377B500232005001105E36D4F
:10031000B5FEFD42739002BC8D4273904280930201
:10032000800873A0023097020000938222D193E2EA
:100330003200739052309712000093820212739031
:10034000123473002030411122C63AC43EC2000864
:10035000B7F700E0D843B7F700E0799BD8C3B707F9
:10036000002083A7870613871700B707002023A460
:10037000E70683A7C18099C783A7C1801387F7FFCA
:1003800023A6E18083A7018199C783A701811387F1
:10039000F7FF23A8E1800100324422479247410140
:1003A00073002030411122C636C43AC23EC0000854
:1003B000B7470140938707809E23C207C18393F705
:1003C0000702A1CB93878182DA2BCD4763EFE70247
:1003D000B747014093870780DE23139707014183C6
:1003E00093878182DE2BBE861377F70F93878182F6
:1003F000B69798A393878182DE2B85071397070111
:10040000418393878182DAAB29A093878182239AE3
:100410000700B7470140938707809E23C207C18327
:10042000C18B85C3B747014093870780DE2393873D
:100430008182DA2B93878182FAAB93878182239A18
:10044000070001003244A24612478247410173006F
:100450002030411122C636C43AC23EC00008B74718
:100460000040938707409E23C207C18393F707028A
:10047000A1CB93870184DA2BCD4763EFE702B7471F
:10048000004093870740DE2313970701418393873A
:100490000184DE2BBE861377F70F93870184B6970E
:1004A00098A393870184DE2B850713970701418367
:1004B00093870184DAAB29A093870184239A0700EC
:1004C000B7470040938707409E23C207C183C18B73
:1004D00085C3B747004093870740DE239387018495
:1004E000DA2B93870184FAAB93870184239A070060
:1004F00001003244A2461247824741017300203076
:10050000411122C636C43AC23EC00008B757004067
:10051000938707809E23C207C18393F70702A1CB6D
:1005200093878185DA2BCD4763EFE702B757004009
:1005300093870780DE231397070141839387818583
:10054000DE2BBE861377F70F93878185B69798A326
:1005500093878185DE2B8507139707014183938756
:100560008185DAAB29A093878185239A0700B75745
:100570000040938707809E23C207C183C18B85C338
:10058000B757004093870780DE2393878185DA2B56
:1005900093878185FAAB93878185239A07000100B1
:1005A0003244A24612478247410173002030411174
:1005B00022C63AC43EC20008B707004093870740EE
:1005C0009E2BC207C183858B8DC3B70700409387DD
:1005D00007409E2B139707014183B707004093877D
:1005E0000740799B420741839AAB0100324422477E
:1005F0009247410173002030011122CE00102326C2
:10060000A4FE8327C4FEFD8B0547B316F70037E72A
:1006100000E08327C4FE9583938707048A07BA976F
:1006200094C30100724405618280011122CE001042
:100630002326A4FEAE87A305F4FE0347B4FE9D4720
:1006400063F5E7009D47A305F4FEB7E600E08347A6
:10065000B4FE960713F7F70F8327C4FEB6972380DF
:10066000E7400100724405618280411122C6000802
:10067000B7170240984FB71702401367470098CF4B
:10068000B7170240984FB71702401367170098CF6B
:10069000B7070140D443B7070140370700F97D177A
:1006A000758FD8C3B717014093870780596798CFD4
:1006B000B717014093870780196798CFB717014094
:1006C00093870780596798CFB717014093870780B2
:1006D0009C4F0100324441018280411122C6000832
:1006E000B71702409843B71702401367170098C323
:1006F0000100B71702409C43898BE5DFB717024022
:100700009443B71702403707FCFF7D17758F98C3D6
:10071000B71702409443B71702404167558F98C3FB
:100720000100B71702409843B7070200F98FF5DBC5
:10073000B71702409443B717024037070800558F98
:1007400098C3B7170240DC4313F7C7FFB71702403F
:1007500013671700D8C3B71702409443B717024076
:10076000370700FF7D17758F98C3B7170240DC432A
:1007700013F7F7F0B717024013670708D8C3B72776
:100780000240944BB7270240370700FE7D17758F54
:1007900098CBB7170240DC4313F7F78FB717024027
:1007A00013670740D8C3B7170240D443B7170240B6
:1007B00071771307F77F758FD8C3B7170240D843F7
:1007C000D177FD17B376F700B71702402167558F31
:1007D000D8C3B7170240D443B717024001777D173B
:1007E000758FD8C3B7170240D443B717024041678B
:1007F000558FD8C3B7170240D443B7170240370705
:100800003C00558FD8C3B7170240D843B70740FF05
:10081000FD17B376F700B717024037078000558FF2
:10082000D8C3B7170240D843B70700F9FD17B3760E
:10083000F700B717024037070006558FD8C3B71720
:1008400002409443B717024037070001558F98C301
:10085000B7170240DC4313F7C7FFB717024013670F
:100860002700D8C30100B71702409843B70700021A
:10087000F98FF5DB0100324441018280411106C647
:1008800022C40008B7F700E09843B7F700E0799B6F
:1008900098C3B7F700E09843B7F700E01367270065
:1008A00098C3B7F700E09843B7F700E06D9B98C393
:1008B000B7F700E09843B7F700E01367870098C3E5
:1008C000B7F700E09843B7F700E01367070198C354
:1008D000B7F700E09843B7F700E01367070298C343
:1008E00037F700E089679387773201481CCB232ACA
:1008F0000701314511339D453145053BB7F700E010
:100900009843B7F700E01367170098C30100B2409F
:10091000224441018280011122CE00102326A4FE30
:100920000327C4FE23A6E180010083A7C180F5FF51
:100930000100724405618280797122D60018232E4D
:10094000A4FCAE873687A30DF4FCB287230DF4FC1C
:10095000BA87A30CF4FCA30704FE8347A4FD89C750
:100960000547638EE702A5A88347B4FD8A07A3075E
:10097000F4FE8327C4FD98438347F4FE8D46B39766
:10098000F60093C7F7FFF98F834694FD0347F4FE03
:100990003397E6005D8F8327C4FD98C389A0834702
:1009A000B4FDE117A30DF4FC8347B4FD8A07A30748
:1009B000F4FE8327C4FDD8438347F4FE8D46B397E6
:1009C000F60093C7F7FFF98F834694FD0347F4FEC3
:1009D0003397E6005D8F8327C4FDD8C30100010073
:1009E000325445618280797106D622D40018232EB4
:1009F000A4FCAE873287A30DF4FCBA87230DF4FC68
:100A0000A30704FE0347B4FD9D4763E5E700A30782
:100A100004FE21A08547A307F4FE8347A4FD81EFD0
:100A20000347F4FE8347B4FD81463A86BE8503251D
:100A3000C4FD193785A00347A4FD8547631DF70052
:100A40000347F4FE8347B4FD85463A86BE850325F9
:100A5000C4FDDD3581A00347A4FD8947631DF70070
:100A60000347F4FE8347B4FD89463A86BE850325D5
:100A7000C4FDD93505A00347A4FD8D47631CF700CD
:100A80000347F4FE8347B4FD8D463A86BE850325B1
:100A9000C4FD5D350100B2502254456182800111D0
:100AA00022CE00102326A4FEAE8732872322D4FE56
:100AB000A305F4FEBA872305F4FE8347B4FE89C775
:100AC0000547638DE7029DA08327C4FE98438327D3
:100AD00044FE9C23BE868D47B397D70093C7F7FF8C
:100AE000F98F0347A4FE832644FE94223317D700D0
:100AF0005D8F8327C4FE98C301000DA88327C4FE21
:100B0000D843832744FE9C23BE868D47B397D700E6
:100B100093C7F7FFF98F0347A4FE832644FE942270
:100B20003317D7005D8F8327C4FED8C301007244FA
:100B300005618280011106CE22CC00102326A4FE7E
:100B40002324B4FE2320F4FEB287A303F4FEB68769
:100B50002303F4FEBA87A302F4FE834774FE05471D
:100B60006385E70409476380E708639C07128347AE
:100B700064FE89C70547638EE70025A2032704FEAC
:100B8000834754FEBA860146BE850325C4FE013F55
:100B900021A8032704FE834754FEBA860546BE8576
:100BA0000325C4FEED3D0100EDA8834764FE89C71F
:100BB0000547638EE700F5A0032704FE834754FE34
:100BC000BA860946BE850325C4FED13D21A8032768
:100BD00004FE834754FEBA860D46BE850325C4FE37
:100BE0007D3D01007DA8834764FE0D47638BE702CE
:100BF0000D476346F7000947638AE70055A0114790
:100C0000638CE70215476384E70659A8032704FEAF
:100C1000834754FEBA860146BE850325C4FE41358E
:100C200041A0032704FE834754FEBA860546BE85CD
:100C30000325C4FEAD35ADA0032704FE834754FE53
:100C4000BA860946BE850325C4FE913D8327C4FEAE
:100C5000D847832784FE9C23BE868547B397D70059
:100C600093C7F7FF7D8F8327C4FED8C715A8032736
:100C700004FE834754FEBA860946BE850325C4FE9A
:100C8000393D8327C4FED847832784FE9C23BE8634
:100C90008547B397D7005D8F8327C4FED8C701006F
:100CA00001000100F240624405618280797106D63C
:100CB00022D40018232EA4FCAE87A30DF4FCB28727
:100CC000230DF4FCB687A30CF4FCBA87230CF4FCC8
:100CD000A30704FE0327C4FDB717014093870780CD
:100CE000631BF700B7170240984FB717024013670E
:100CF000470098CF51A00327C4FDB7170140938741
:100D000007C0631BF700B7170240984FB7170240A0
:100D10001367870098CF8DA00327C4FDB717014044
:100D2000631BF700B7170240984FB71702401367CD
:100D3000070198CF91A00327C4FDB71701409387FF
:100D40000740631BF700B7170240984FB7170240E0
:100D50001367070298CF0DA00327C4FDB7270140F2
:100D600093870780631AF700B7170240984FB717A9
:100D700002401367070498CF8347B4FD034784FDFF
:100D80003A86BE850325C4FDB9390347B4FD9D47A6
:100D900063E9E7028347B4FD8A0793F7F70F8907F2
:100DA00093F7F70FA307F4FE9307F4FE834694FD31
:100DB0000346A4FD9305B4FD01470325C4FD9D3BF7
:100DC00035A88347B4FDE11793F7F70FA30DF4FCA3
:100DD0008347B4FD8A0793F7F70F890793F7F70F57
:100DE000A307F4FE9307F4FE834694FD0346A4FD97
:100DF0009305B4FD05470325C4FD2D3B0100B2500A
:100E0000225445618280411106C622C40008B717EA
:100E10000240984FB71702401367870098CFB71763
:100E20000240984FB71702401367170098CFB717C3
:100E30000140938707C0D843FD779387F73FB37688
:100E4000F700B7170140938707C0056713070780AE
:100E5000558FD8C3B7170140938707C0D843B7173A
:100E60000140938707C013670730D8C3B717014005
:100E7000938707C0D843D177FD17B376F700B7172C
:100E80000140938707C01167558FD8C3B71701403A
:100E9000938707C0D443B7170140938707C075777E
:100EA0007D17758FD8C3B7170240D44FB7170240CC
:100EB00037070400558FD8CFB75700409387078076
:100EC0009E27C207C183C207C187BD8BC207C187E6
:100ED00093E70713139707014187B757004093879C
:100EE0000780420741839AA7B7570040938707803E
:100EF0009E27C207C183C207C187C19BC207C187A2
:100F000093E78700139707014187B75700409387FE
:100F10000780420741839AA7B7570040938707800D
:100F2000DE2793960701C182B75700409387078059
:100F30000967558F42074183DAA7B7570040938767
:100F40000780DE2793960701C182B7570040938739
:100F500007807D777D17758F42074183DAA7B757E2
:100F6000004093870780DE2793960701C182B75719
:100F70000040938707807D771307F77F758F4207BF
:100F80004183DAA7B757004093870780DE2713977E
:100F900007014183B7570040938707801377F7BF56
:100FA00042074183DAA7B757004093870780DE27BF
:100FB000139707014183B757004093870780137742
:100FC000F7EF42074183DAA7B757004093870780BE
:100FD000DE27139707014183B757004093870780A7
:100FE0001377F7F742074183DAA7B7570040938793
:100FF0000780DE27139707014183B7570040938787
:1010000007801377F7FB42074183DAA7B757004001
:1010100093870780DE27139707014183B757004066
:10102000938707801367070242074183DAA7B75700
:10103000004093870780DE27139707014183B75746
:101040000040938707801367070142074183DAA7AF
:10105000B757004093870780DE2713970701418326
:10106000B757004093870780136787004207418383
:10107000DAA7B757004093870780DE271397070149
:101080004183B757004093870780136747004207A3
:101090004183DAA7B757004093870780DE2713976D
:1010A00007014183B757004093870780759B42072C
:1010B0004183DAA7B757004093870780DE2713974D
:1010C00007014183B757004093870780799B420708
:1010D0004183DAA7B757004093870780239807001A
:1010E000B7570040938707809E2B93960701C182D4
:1010F000B75700409387078075777D17758F420734
:1011000041839AABB757004093870780239A070023
:10111000B757004093870780239C0700130570038F
:10112000EFF08FCD914513057003EFF00FD0010064
:10113000B240224441018280411122C60008B727F3
:1011400002403707674513073712D8C3B727024055
:101150003797EFCD1307B79AD8C301003244410146
:101160008280411122C60008B7270240984BB7275A
:1011700002401367070898CB010032444101828086
:10118000011106CE22CC0010AA872317F4FEB72740
:1011900002409C4B93F7070891C3793FB727024061
:1011A000984BB72702401367270098CBB727024018
:1011B0000357E4FED8CBB7270240984BB72702402D
:1011C0001367070498CB0100B7270240DC47858BE3
:1011D000E5FFB7270240984BB7270240759B98CB95
:1011E00049370100F240624405618280797106D678
:1011F00022D40018232EA4FC232CB4FCB287231B7A
:10120000F4FC835764FD858BC207C183DDC383571C
:1012100064FD8583231BF4FC8327C4FDC207C183BF
:101220003E85B93FB72702409C4B93F7070891C30F
:101230002137B7270240984BB727024013671700A2
:1012400098CB232604FE1DA88327C4FE8607032708
:1012500084FDBA970327C4FE0607BA860327C4FD98
:1012600036979E231EA30100B7270240DC47858BDB
:10127000E5FF8327C4FE85072326F4FE835764FD1C
:101280000327C4FEE342F7FC835764FD86073E87CD
:10129000832784FDBA979423835764FD86073E878E
:1012A0008327C4FDBA973E8793970601C1831EA387
:1012B000B5A8835764FD8583231BF4FC8327C4FDF5
:1012C000C207C1833E856D3DB72702409C4B93F713
:1012D000070891C39535B7270240984BB7270240BE
:1012E0001367170098CB232404FE1DA8832784FED0
:1012F0008607032784FDBA97032784FE0607BA866C
:101300000327C4FD36979E231EA30100B727024082
:10131000DC47858BE5FF832784FE85072324F4FEC5
:10132000835764FD032784FEE342F7FC0100B727DF
:101330000240DC47858BE5FFB7270240984BB72773
:101340000240799B98CB313D0100B2502254456157
:101350008280797122D60018232EA4FC232CB4FCA1
:10136000B287231BF4FC835764FD858BC207C183BE
:10137000BDC7835764FD8583231BF4FC231704FE3C
:1013800035A08357E4FE86073E878327C4FDBA97BE
:10139000BE868357E4FE8607032784FDBA979A2208
:1013A0009AA38357E4FE85072317F4FE0357E4FE50
:1013B000835764FDE367F7FC835764FD86073E8728
:1013C0008327C4FDBA979A23835764FD8607BE8698
:1013D000832784FDB6971377F70F98A3A1A08357AF
:1013E00064FD8583231BF4FC231604FE35A083577C
:1013F000C4FE86073E878327C4FDBA97BE868357FF
:10140000C4FE8607032784FDBA979A229AA38357BE
:10141000C4FE85072316F4FE0357C4FE835764FDFC
:10142000E367F7FC0100325445618280011122CE4E
:1014300000102326A4FE37E700E08327C4FEBA97F6
:1014400083C7074093F7F70F958393F7F70F3E8510
:10145000724405618280411106C622C40008EFF083
:10146000CFA0EFF08FA7EFF06FC1713A0D47814623
:101470000146B54537150140EFF05F837D5723885E
:10148000E18603C71187018B13677706A388E1867E
:1014900003C72187018B136757042389E18603C79C
:1014A0003187018B13672701A389E18603C7418731
:1014B000018B13671701238AE18603C75187018BCC
:1014C00013670701A38AE18603C76187018B13674E
:1014D00097F8238BE186938701870D67032747825F
:1014E0009375F70FF433818A3686AE86D18EF4B3C6
:1014F0009356870093F5F60F9427818A3686AE8639
:10150000D18E94A79356070193F5F60F9437818AED
:101510003686AE86D18E94B713568701B827018BD5
:10152000BA863287558FB8A72D469385018737F540
:1015300000086D392D469385C18737F50008113DA8
:101540003145ED35AA873E87238AE1808967138577
:10155000077FF92283A78181BE858D671385078068
:10156000652083A781811387170023ACE180B7171B
:101570000140096798CB13054006EFF0CFB9B717C4
:1015800001403707002098CB13054006EFF0AFB8B5
:10159000D1B7797106D622D40018232EA4FC232CAF
:1015A000B4FC232AC4FC232604FE91A00100930569
:1015B0000004B757004013850780EFE0BFC5AA8736
:1015C000FDD7832784FD13871700232CE4FC838732
:1015D0000700C207C183BE85B75700401385078047
:1015E000EFE09FC08327C4FE85072326F4FE032770
:1015F000C4FE832744FDE34BF7FA832744FD3E8571
:10160000B25022544561828039713EDA2ED232D4F2
:1016100036D63AD842DC46DE97F7FF1F938787A479
:1016200022CC804326CA06CEAA8409C41C4C99E366
:10163000228509230C4454102686228536C6EF00E5
:101640007013F2406244D24421618280011126CAA3
:101650004AC806CE22CC4EC652C4AA842E8901C5E1
:101660001C4D91E3C1299C4C804499E32685D921E6
:10167000971700009387871D631BF402C0405E2408
:10168000A18BB1C71C48A1C7FD59294A1C448345F9
:101690000900FD17B1E91CC463DD07062286A945D0
:1016A00026857120FD576308F502294535A0971757
:1016B00000009387A71B6314F4008044C9B79717F1
:1016C00000009387A716E31CF4FAC0444DBFA2851F
:1016D0002685212A55D97D55F2406244D24442499B
:1016E000B249224A056182801CC4050963D70700FC
:1016F000184C63CAE700638845011C401387170034
:1017000018C08CA361B7228626851520E31035F911
:10171000D9B71C401387170018C0294798A371B781
:1017200097F7FF1F93870794AA85884305B7011190
:1017300022CC26CA4AC806CE4EC6AA842E89328436
:1017400001C51C4D91E3FD269717000093870710F4
:101750006317F406C0401C4C1CC45E24A18BC1C39B
:101760001C48B5CF1C4808409379F90F1379F90F3D
:101770001D8D5C486346F500A2852685792C25E5FC
:101780001C440505FD171CC41C401387170018C016
:10179000238037015C486388A7005E24858B81CB5A
:1017A000A9476316F900A2852685852C0DEDF24028
:1017B00062444A85D2444249B24905618280971702
:1017C00000009387A70A6314F400804469B7971751
:1017D00000009387A705E310F4F8C044ADBFA285CD
:1017E0002685212041D17D59D9B7411197F7FF1F97
:1017F0009387478726C2844322C44AC006C62A89E3
:101800002E8489C49C4C99E326852D2697170000C9
:101810009387C703631BF402C0400317C4009317E8
:101820000701C18393F68700ADEA93F6070195EEB1
:10183000A5472320F900136707045AA47D55B24039
:101840002244924402494101828097170000938705
:10185000E7016314F4008044C9B797170000938729
:10186000E7FCE31CF4FAC0444DBF918B9DC34C5878
:1018700089C9930744046384F5004A85112B232A00
:1018800004025E242322040093F7B7FD5EA41C48E3
:101890001CC05E2493E787005EA41C4899EB5E247D
:1018A0001307002093F707286385E700A2854A8580
:1018B00081295E2413F717001DC35C48232404000C
:1018C000B307F0401CCC1C480145B5FB8317C4008E
:1018D00013F707082DD793E707045EA485B7898B14
:1018E000014791E3584818C4F9BFDE25011122CC05
:1018F00026CA06CE4AC84EC613F78700AA842E848D
:1019000079EBD841634DE000B841634AE0000145FE
:10191000F2406244D2444249B2490561828058543F
:101920007DD703A904009396370123A0040063DB4D
:10193000060670485E24918B99C75C401D8E5C58EA
:1019400099C33C401D8E5C540C508146268582977D
:10195000FD575A24631DF5009440F54763E8D70608
:10196000B70740208507B3D7D700858BA5C31C4890
:10197000232204001CC09317370163D80700FD57CA
:101980006314F5009C4091E368C84C5823A02401DF
:10199000BDDD930744046384F5002685D52E232AF4
:1019A0000402B5B70C500146854626850297FD57BF
:1019B0002A86E311F5F89C40B5DF75476385E7009B
:1019C00059476393E70423A0240191B713670704E1
:1019D0005AA47D5535BF83A90501E38A09F203A9FD
:1019E00005008D8B23A0350133093941014791E36F
:1019F000D84918C4E35D20F11C540C50CA864E86A9
:101A0000268582976347A0005E2493E707045EA4BF
:101A1000C9B7AA993309A940F1BF9C49B9CF0111AF
:101A200022CC06CE2A8411C51C4D81E72EC6192270
:101A3000B24597170000938767E1639BF5004C4020
:101A40008397C50095C722856244F240056171BD48
:101A500097170000938787E16394F5000C44CDB796
:101A600097170000938787DCE39CF5FC4C44C9BFC3
:101A7000F240624401450561828001458280411146
:101A800022C406C62A844EA572A52320050023225F
:101A90000500232405002322050623280500232A08
:101AA0000500232C0500214681451305C505EFE0FF
:101AB0002FE9971700009387A7B15CD09717000014
:101AC0009387C7B31CD4971700009387A7B75CD43C
:101AD00097170000938707BA00D01CD8B240224461
:101AE0004101828097050000938565F389AA411121
:101AF00026C2130680069384F5FFB384C4024AC04D
:101B00002E8922C406C6938544073D262A8401CD2A
:101B10002320050023222501310508C413868406ED
:101B20008145EFE0EFE12285B24022449244024930
:101B3000410182801C4DBDE3411106C622C49707B6
:101B40000000938767FA1CD597E7FF1F9387C7515B
:101B50009C43232405042326050423280504631439
:101B6000F50085471CCD2A841D2848C022850528FC
:101B700008C422852D2048C44840014691450137BC
:101B800008440546A545E53D48440946C945C53DC7
:101B900085471CCCB24022444101828082804111A1
:101BA00097E7FF1F9387474C26C284434AC006C667
:101BB0009C4C22C42A8999E32685AD3F93848404F2
:101BC0008044DC40FD1763D607009C40B9CF8440B9
:101BD000C5BF0317C40039E7C17785072322040670
:101BE0002320040023220400232404005CC42328AF
:101BF0000400232A0400232C0400214681451305F8
:101C0000C405EFE0EFD3232A0402232C040223248B
:101C10000404232604042285B2402244924402494B
:101C2000410182801304840671BF91454A85C13504
:101C300088C051FDB1472320F9000144E9BF797103
:101C400022D44AD052CC56CA5AC85EC606D626D22C
:101C50004ECE2A8AAE8A130485040149054BFD5BEA
:101C600009ECB25022544A8592540259F249624A10
:101C7000D24A424BB24B45618280044483294400DE
:101C8000FD1963D409000040E1BFDE24637BFB0043
:101C90008397E40063877701A6855285829A33692A
:101CA000A90093848406E9BF1971A6DAAE848395EE
:101CB000E500A2DC86DE328463DB0500DE2423A09F
:101CC000060093F7070885E7930700401DA030083A
:101CD00036C6EF00B01FB246E34205FE7247BD674D
:101CE000F98F7977BA9793B717009CC2F1BF930722
:101CF00000041CC0F6506654D65401450961828028
:101D0000DE25011122CC06CE26CA4AC8898B2E8434
:101D100089CF930774041CC01CC885475CC8F24077
:101D20006244D24442490561828074003000AA8432
:101D3000A53FA2452A892685012219E98317C400F7
:101D400013F7072069FFF19B93E727005EA4D1B743
:101D500097070000938747D99CD45E2408C008C821
:101D600093E707085EA4A2475CC8B24781CF8315FA
:101D7000E4002685EF00301811C55E24F19B93E73F
:101D800017005EA45E243369F9002316240141BFC5
:101D9000DDC183A7C5FF411122C406C626C2138434
:101DA000C5FF63D307003E94AA84EF00901B93877E
:101DB000C1819C4381EF2322040023AE8180224411
:101DC000B2402685924441016F00D019637EF40031
:101DD00014403307D4006396E7009843DC433697FA
:101DE00018C05CC0D9BFBA87D84319C3E37DE4FEED
:101DF00094433386D700631F86001040B29694C385
:101E00003386D700E31DC7FA10435843B29694C3F4
:101E1000D8C375B76375C400B1479CC04DB71040B7
:101E2000B306C4006316D70014435843B29614C0D7
:101E300058C0C0C369B78280011126CA9384350097
:101E4000F19806CE22CC4AC84EC6A104B14763F32E
:101E5000F404B14463E2B4042A89EF00901093873C
:101E6000C18198433A8439E0938701829C4391E78A
:101E700081454A85052F23A0A182A6854A851D2775
:101E8000FD5963193507B1472320F9004A85EF0052
:101E9000700D29A0E3D004FCB1471CC10145F240FC
:101EA0006244D2444249B249056182801C40858F18
:101EB00063CF0702AD4663F6F6001CC03E9404C033
:101EC00031A05C406313870223AEF1804A85EF00A6
:101ED00070091305B4009307440061993307F54076
:101EE0005DDF3A94898F1CC05DBF5CC3C5B7228794
:101EF000404095BF130435007198E30285FCB3059B
:101F0000A4404A854525E31C35FBB5BF1C46FD179B
:101F10001CC663DA0700184E63C5E700A94763943F
:101F2000F5006FF0DF801C422E851387170018C262
:101F30008CA38280011122CC26CA4AC84EC652C444
:101F400006CE2A89AE893284B304D6007D5A631442
:101F50009400014501A80C204E864A85453F0504A2
:101F6000E31745FFF2406244D2444249B249224A53
:101F700005618280357122CD26CB4AC94EC706CF76
:101F800052C556C35AC1DEDEE2DCE6DAAA89AE8467
:101F90003289368401C51C4D91E3693E97170000D4
:101FA0009387C78A6397F40C83A44900DE24A18B2E
:101FB000FDC39C48EDC393070002A304F1029307FD
:101FC000000302D22305F10222C6930B5002971A96
:101FD0000000938AAA8B054C294B4A841C2099C384
:101FE000639E770DB30C2441638D0C00E6864A8610
:101FF000A6854E858137FD57630FF51C9256E696F0
:1020000036D21C206389071CFD571309140002C82F
:1020100002CE3ECA02CCA309010482D48345090042
:10202000154656851D2713041900C24751E913F7B9
:10203000070109C713070002A309E10413F787008A
:1020400009C71307B002A309E10483460900130777
:10205000A002638FE606F2474A848146254618208F
:1020600093051400130707FD6377E60AB5CA3ECE51
:1020700085A8970700009387677F6395F40083A482
:1020800089002DB7970700009387477AE390F4F211
:1020900083A4C90021BFA6854E85EFF00FF501DDB1
:1020A0007D55FA406A44DA444A49BA492A4A9A4A6A
:1020B0000A4BF65B665CD65C0D618280050439BF15
:1020C000330555413315AC00C98F3EC82289B9B7D5
:1020D000324793064700184336C6634707023ACE95
:1020E00018209307E002631DF70418309307A0023D
:1020F000631BF702B2470904138747009C433AC6A3
:1021000063C107023ECA2DA83307E04093E72700CA
:102110003ACE3EC8F1B7B387670385462E84BA9797
:102120003DBFFD57C5B7050402CA81468147254614
:10213000182093051400130707FD6374E606F9F2EF
:102140000C200D46170500001305C574FD2B11CD9D
:1021500097070000938707741D8D93070004B397BA
:10216000A700424505045D8D2AC80C2019461705B5
:10217000000013056572130914002304B102F12352
:1021800035C197E7FFFF9387E7E795E74247B247F7
:102190001377071009CF91073EC69257D2973ED2C8
:1021A0002DBDB387670385462E84BA9751B79D0727
:1021B000E19BA107D5B77800970600009386C6D7A4
:1021C00026860C084E8597000000E7000000FD57AA
:1021D0002A8AE314F5FCDE2493F70704E39207EC64
:1021E0001255C1B57800970600009386E6D426867E
:1021F0000C084E85012AE1BF797156CA9C49BA8AFA
:10220000984522D426D24ECE52CC06D64AD05AC8B1
:102210005EC6AA892E84B284368A63D3E700BA8761
:102220009CC00347340419C385079CC01C4093F726
:10223000070281C79C4089079CC0032904001379C9
:102240006900631A0900130B9401FD5B5C4498401C
:10225000998F634CF9041C408346340493F70702BA
:10226000B336D000A5EB13063404D2854E85829A8E
:10227000FD576303F5041C4011469840998B544464
:1022800081446397C700B384E64063D3040081446C
:102290001C4418486354F700998FBE94014969049F
:1022A0007D5B63982405014509A885465A86D28539
:1022B0004E85829A631E75017D55B2502254925408
:1022C0000259F249624AD24A424BB24B456182807E
:1022D0000509ADBF3307D40013060003A301C704EB
:1022E0000347540493871600A2978906A381E70445
:1022F0009DBF85462286D2854E85829AE30E65FB78
:10230000050945B7797122D426D24AD04ECE06D6D9
:1023100052CC56CA5AC8B689942D93079006328972
:10232000AA842E8413863504638DF60263E2D706F1
:10233000930780056385F61863EDD700638D06204B
:1023400093073004638EF60A930A24042301D4040D
:10235000C9A0930730066385F60A93074006E39504
:10236000F6FE1C40084393F6070893054500C5C6D2
:102370001C410CC363D807001307D002B307F04019
:10238000A301E4049706000093868651294765A8B7
:10239000930700076381F61663E5D7029307E0060B
:1023A0006388F6189307F006E390F6FA0C401C4396
:1023B00013F80508138547006307080608C39C4304
:1023C00085A893075007E383F6FE93078007638889
:1023D000F61293073007E399F6F61C43D041814586
:1023E0009386470014C383AA07005685B92E01C5FA
:1023F0003305554148C05C401CC8A301040461A8D2
:102400001C43930A2404938647009C4314C323016E
:10241000F4048547D5B793F607041C410CC3B9DA19
:10242000C207C18781BF93F5050408C3C9D99E239C
:102430001307F0066386E60E97060000938646466D
:102440002947A30104044C400CC463C5050008409F
:102450006D9908C099E3B28A89CDB28AB3F5E702D3
:10246000FD1AB6958C212380BA00B3D5E70263FF2D
:10247000E70AA147631EF7001C40858B91CB5840AB
:102480001C4863C7E70093070003A38FFAFEFD1AF9
:102490003306564110C84E87CA867000A28526852D
:1024A000A13B7D5A631D450B7D55B2502254925479
:1024B0000259F249624AD24A424B45618280A38264
:1024C000D504970600009386A63D0C40084313F8F8
:1024D00005081C411105630D080208C313F7150018
:1024E00001C793E505020CC04147A1FF0C4093F5DD
:1024F000F5FD0CC0B9B79C4193E707029CC1930757
:102500008007A302F404970600009386A63A75BFDD
:1025100013F8050408C3E30308FCC207C1837DBFA9
:10252000970600009386C637214721BFAE873DB787
:1025300094411C43CC4913F80608138547006306F1
:10254000080008C39C438CC339A008C393F6060453
:102550009C43F5DA8EA323280400B28A2DBF1448C9
:102560005686CA8526858299E30045F51C40898BED
:102570008DE7B2474844E35AF5F23E853DB78546BC
:102580005686CA8526858299E30065F3050A5C4470
:102590003247998FE345FAFEE9BF014A930A940155
:1025A0007D5BF5B7411122C42A842E8523A40188BE
:1025B00006C6312CFD576317F500938781889C432D
:1025C00091C31CC0B240224441018280411122C407
:1025D0002E848395E50006C67922634905007C4870
:1025E000AA977CC8B2402244410182805E247D7754
:1025F0007D17F98F5EA4FDB7DE25011122CC26CA16
:102600004AC84EC606CE93F70710AA842E84328994
:10261000B68991C78395E5008946014609225E2463
:102620007D777D17F98F5EA48315E4006244F24044
:10263000CE864A86B24942492685D244056125A8FC
:10264000411122C42E848395E50006C6C928FD5792
:102650005A24631AF500FD77FD17F98F5EA4B24086
:102660002244410182808567D98F5EA468C8C5BFB6
:102670008395E50005A8411122C42A842E85B285E0
:10268000368623A4018806C6EFE0BFF0FD57631726
:10269000F500938781889C4391C31CC0B2402244BB
:1026A00041018280411122C42A842E8523A40188FD
:1026B00006C6C520FD576317F500938781889C43A4
:1026C00091C31CC0B240224441018280411122C406
:1026D0002A842E85B28523A4018806C6C920FD5709
:1026E0006317F500938781889C4391C31CC0B24057
:1026F000224441018280411122C42A842E8523A4D0
:10270000018806C65D20FD576317F5009387818811
:102710009C4391C31CC0B2402244410182804111BC
:1027200022C42A842E85B285368623A4018806C653
:102730005920FD576317F500938781889C4391C307
:102740001CC0B24022444101828093F5F50F2A96C5
:102750006314C500014582801C21E38EB7FE050588
:10276000C5BF82808280411122C42A842E85B28511
:10277000368623A4018806C6A920FD576317F500F5
:10278000938781889C4391C31CC0B240224441017D
:1027900082809307800523A4F1887D55828093076A
:1027A000800523A4F1887D5582809307800523A4AA
:1027B000F188014582809307800523A4F1887D5527
:1027C00082809307800523A4F1887D5582809387BA
:1027D00041829C4391C73E9523A2A1823E8582807F
:1027E0009387C1883E9523A2A1823E858280000006
:1027F00048656C6C6F20776F726C64210D0000006F
:10280000D0A1D187D0B5D182D187D0B8D0BA20D1CC
:1028100080D0B0D0B2D0B5D0BD203D2025640D0A07
:1028200000000000D00F4940000000000000000040
:102830000000000000000000000000000000000098
:102840000000000000000000000000000000000088
:102850000000000000000000000000000000000078
:102860000000000000000000000000000000000068
:102870000000000000000000000000000000000058
:102880000000000000000000232D302B200000007D
:10289000686C4C006566674546470000303132334E
:1028A000343536373839414243444546000000004C
:1028B00030313233343536373839616263646566B6
:0428C0000000000014
:1028C40000000000482800006828000028280000B4
:1028D40000000000000000000000000000000000F4
:1028E40000000000000000000000000000000000E4
:1028F40000000000000000000000000000000000D4
:1029040000000000000000000000000000000000C3
:1029140000000000000000000000000000000000B3
:0829240000000020000000206B
:00000001FF
