:100000006F00C01A1300000013000000130000006E
:100010001300000013000000130000001300000094
:100020001300000013000000130000001300000084
:08003000130000007300100032
:100038000000000000000000400100004201000034
:100048000000000044010000000000000000000063
:100058004601000048010000000000000000000008
:1000680036020000000000004C0100000000000003
:100078004E01000050010000520100005401000030
:1000880056010000580100005A0100005C01000000
:100098005E010000600100006201000064010000D0
:1000A80066010000680100006A0100006C010000A0
:1000B8006E01000070010000720100007401000070
:1000C80076010000780100007A0100007C01000040
:1000D8007E01000080010000820100008401000010
:1000E800860100002C0400008A0100008C01000039
:1000F8008E010000900100009201000094010000B0
:1001080096010000AC0200007E0300009C01000084
:100118009E010000A0010000A2010000A40100004F
:10012800A6010000A8010000AA01000000000000CC
:080138000000000000000000BF
:1001400001A001A001A001A001A001A001A001A0A7
:1001500001A001A001A001A001A001A001A001A097
:1001600001A001A001A001A001A001A001A001A087
:1001700001A001A001A001A001A001A001A001A077
:1001800001A001A001A001A001A001A001A001A067
:1001900001A001A001A001A001A001A001A001A057
:1001A00001A001A001A001A001A001A097010020D1
:1001B00093814165175100201301C1E41715000018
:1001C000130585F0970500209385C5E317060020E9
:1001D000130646E363FAC5008322050023A05500F9
:1001E00011059105E3EAC5FE17050020130585E119
:1001F000938581856377B500232005001105E36DA4
:10020000B5FEFD42739002BC8D4273904280930212
:10021000800873A0023097020000938222E293E2EA
:1002200032007390523097120000938242D873903C
:10023000123473002030411122C63AC43EC2000875
:10024000B7F700E0D843B7F700E0799BD8C3B7070A
:10025000002083A7070013871700B707002023A0FB
:10026000E700B707002083A7470099CBB707002016
:1002700083A747001387F7FFB707002023A2E700F3
:10028000B707002083A7870099CBB707002083A773
:1002900087001387F7FFB707002023A4E7000100BA
:1002A000324422479247410173002030411122C657
:1002B00036C43AC23EC00008B74701409387078062
:1002C0009E23C207C18393F70702A5C7B707002083
:1002D00093870701DA2BCD4763E7E704B74701406F
:1002E00093870780DE23139707014183B707002018
:1002F00093870701DE2BBE861377F70FB707002021
:1003000093870701B69798A3B70700209387070143
:10031000DE2B8507139707014183B70700209387DA
:100320000701DAAB39A0B707002093870701239AAA
:100330000700B7470140938707809E23C207C18308
:10034000C18B95C7B747014093870780DE23B70766
:10035000002093870701DA2BB70700209387070156
:10036000FAABB707002093870701239A0700010023
:100370003244A246124782474101730020304111A6
:1003800022C636C43AC23EC00008B7470040938731
:1003900007409E23C207C18393F70702A1CB93872F
:1003A0008182DA2BCD4763EFE702B747004093879E
:1003B0000740DE2313970701418393878182DE2B59
:1003C000BE861377F70F93878182B69798A393879A
:1003D0008182DE2B850713970701418393878182F2
:1003E000DAAB29A093878182239A0700B7470040A0
:1003F000938707409E23C207C183C18B85C3B7473C
:10040000004093870740DE2393878182DA2B93870E
:100410008182FAAB93878182239A070001003244DC
:10042000A24612478247410173002030411122C683
:100430003AC43EC20008B7070040938707409E2B8E
:10044000C207C183858B8DC3B707004093870740E0
:100450009E2B139707014183B707004093870740FE
:10046000799B420741839AAB01003244224792476D
:10047000410173002030011122CE00102326A4FE7A
:100480008327C4FEFD8B0547B316F70037E700E06E
:100490008327C4FE9583938707048A07BA9794C37A
:1004A0000100724405618280011122CE00102326D2
:1004B000A4FEAE87A305F4FE0347B4FE9D4763F593
:1004C000E7009D47A305F4FEB7E600E08347B4FECE
:1004D000960713F7F70F8327C4FEB6972380E740EC
:1004E0000100724405618280411122C60008B717DD
:1004F0000240984FB71702401367470098CFB717CD
:100500000240984FB71702401367170098CFB707FC
:100510000140D443B7070140370700F97D17758FB5
:10052000D8C3B717014093870780596798CFB7178B
:10053000014093870780196798CFB71701409387C9
:100540000780596798CFB7170140938707809C4F62
:100550000100324441018280411122C60008B717D0
:1005600002409843B71702401367170098C3010071
:10057000B71702409C43898BE5DFB71702409443CD
:10058000B71702403707FCFF7D17758F98C3B71761
:1005900002409443B71702404167558F98C301004A
:1005A000B71702409843B7070200F98FF5DBB7177A
:1005B00002409443B717024037070800558F98C38D
:1005C000B7170240DC4313F7C7FFB71702401367A2
:1005D0001700D8C3B71702409443B7170240370734
:1005E00000FF7D17758F98C3B7170240DC4313F7E0
:1005F000F7F0B717024013670708D8C3B7270240C0
:10060000944BB7270240370700FE7D17758F98CBB4
:10061000B7170240DC4313F7F78FB7170240136791
:100620000740D8C3B7170240D443B71702407177C9
:100630001307F77F758FD8C3B7170240D843D17718
:10064000FD17B376F700B71702402167558FD8C35F
:10065000B7170240D443B717024001777D17758F53
:10066000D8C3B7170240D443B71702404167558F2C
:10067000D8C3B7170240D443B717024037073C002E
:10068000558FD8C3B7170240D843B70740FFFD17AF
:10069000B376F700B717024037078000558FD8C3ED
:1006A000B7170240D843B70700F9FD17B376F70034
:1006B000B717024037070006558FD8C3B717024057
:1006C0009443B717024037070001558F98C3B717F7
:1006D0000240DC4313F7C7FFB71702401367270038
:1006E000D8C30100B71702409843B7070002F98F3B
:1006F000F5DB0100324441018280411106C622C46B
:100700000008B7F700E09843B7F700E0799B98C37B
:10071000B7F700E09843B7F700E01367270098C3E6
:10072000B7F700E09843B7F700E06D9B98C3B7F7C1
:1007300000E09843B7F700E01367870098C3B7F766
:1007400000E09843B7F700E01367070198C3B7F7D5
:1007500000E09843B7F700E01367070298C337F744
:1007600000E089679387773201481CCB232A070171
:10077000314511339D453145053BB7F700E09843BE
:10078000B7F700E01367170098C30100B240224496
:1007900041018280011122CE00102326A4FEB7075A
:1007A00000200327C4FE23A2E7000100B7070020B2
:1007B00083A74700E5FF01007244056182807971DB
:1007C00022D60018232EA4FCAE873687A30DF4FC96
:1007D000B287230DF4FCBA87A30CF4FCA30704FE34
:1007E0008347A4FD89C70547638EE702A5A8834711
:1007F000B4FD8A07A307F4FE8327C4FD984383470B
:10080000F4FE8D46B397F60093C7F7FFF98F834642
:1008100094FD0347F4FE3397E6005D8F8327C4FD04
:1008200098C389A08347B4FDE117A30DF4FC834767
:10083000B4FD8A07A307F4FE8327C4FDD84383478A
:10084000F4FE8D46B397F60093C7F7FFF98F834602
:1008500094FD0347F4FE3397E6005D8F8327C4FDC4
:10086000D8C301000100325445618280797106D6F7
:1008700022D40018232EA4FCAE873287A30DF4FCEB
:10088000BA87230DF4FCA30704FE0347B4FD9D477C
:1008900063E5E700A30704FE21A08547A307F4FE54
:1008A0008347A4FD81EF0347F4FE8347B4FD8146EF
:1008B0003A86BE850325C4FD193785A00347A4FDEC
:1008C0008547631DF7000347F4FE8347B4FD854663
:1008D0003A86BE850325C4FDDD3581A00347A4FD0E
:1008E0008947631DF7000347F4FE8347B4FD89463B
:1008F0003A86BE850325C4FDD93505A00347A4FD6E
:100900008D47631CF7000347F4FE8347B4FD8D4613
:100910003A86BE850325C4FD5D350100B2502254E0
:1009200045618280011122CE00102326A4FEAE87ED
:1009300032872322D4FEA305F4FEBA872305F4FEF2
:100940008347B4FE89C70547638DE7029DA08327CF
:10095000C4FE9843832744FE9C23BE868D47B397ED
:10096000D70093C7F7FFF98F0347A4FE832644FE01
:1009700094223317D7005D8F8327C4FE98C30100EC
:100980000DA88327C4FED843832744FE9C23BE863C
:100990008D47B397D70093C7F7FFF98F0347A4FE9E
:1009A000832644FE94223317D7005D8F8327C4FE2D
:1009B000D8C30100724405618280011106CE22CCA9
:1009C00000102326A4FE2324B4FE2320F4FEB287C5
:1009D000A303F4FEB6872303F4FEBA87A302F4FE52
:1009E000834774FE05476385E70409476380E7088A
:1009F000639C0712834764FE89C70547638EE7003F
:100A000025A2032704FE834754FEBA860146BE850D
:100A10000325C4FE013F21A8032704FE834754FE9B
:100A2000BA860546BE850325C4FEED3D0100EDA84E
:100A3000834764FE89C70547638EE700F5A0032757
:100A400004FE834754FEBA860946BE850325C4FECC
:100A5000D13D21A8032704FE834754FEBA860D46E4
:100A6000BE850325C4FE7D3D01007DA8834764FE4D
:100A70000D47638BE7020D476346F7000947638A1A
:100A8000E70055A01147638CE70215476384E7062A
:100A900059A8032704FE834754FEBA860146BE8543
:100AA0000325C4FE413541A0032704FE834754FEBD
:100AB000BA860546BE850325C4FEAD35ADA0032725
:100AC00004FE834754FEBA860946BE850325C4FE4C
:100AD000913D8327C4FED847832784FE9C23BE868E
:100AE0008547B397D70093C7F7FF7D8F8327C4FE51
:100AF000D8C715A8032704FE834754FEBA860946C3
:100B0000BE850325C4FE393D8327C4FED84783270D
:100B100084FE9C23BE868547B397D7005D8F8327CD
:100B2000C4FED8C7010001000100F2406244056123
:100B30008280797106D622D40018232EA4FCAE87B9
:100B4000A30DF4FCB287230DF4FCB687A30CF4FCD0
:100B5000BA87230CF4FCA30704FE0327C4FDB717D0
:100B6000014093870780631BF700B7170240984F37
:100B7000B71702401367470098CF51A00327C4FD61
:100B8000B7170140938707C0631BF700B7170240F0
:100B9000984FB71702401367870098CF8DA003279F
:100BA000C4FDB7170140631BF700B7170240984F09
:100BB000B71702401367070198CF91A00327C4FD20
:100BC000B717014093870740631BF700B717024030
:100BD000984FB71702401367070298CF0DA003275D
:100BE000C4FDB727014093870780631AF700B71742
:100BF0000240984FB71702401367070498CF834706
:100C0000B4FD034784FD3A86BE850325C4FDB9398A
:100C10000347B4FD9D4763E9E7028347B4FD8A07B4
:100C200093F7F70F890793F7F70FA307F4FE9307DE
:100C3000F4FE834694FD0346A4FD9305B4FD0147ED
:100C40000325C4FD9D3B35A88347B4FDE11793F709
:100C5000F70FA30DF4FC8347B4FD8A0793F7F70F52
:100C6000890793F7F70FA307F4FE9307F4FE834673
:100C700094FD0346A4FD9305B4FD05470325C4FD7B
:100C80002D3B0100B250225445618280411122C6A1
:100C90000008B72702403707674513073712D8C344
:100CA000B72702403797EFCD1307B79AD8C3010093
:100CB000324441018280411122C60008B727024018
:100CC000984BB72702401367070898CB01003244BE
:100CD00041018280011106CE22CC0010AA87231781
:100CE000F4FEB72702409C4B93F7070891C3793F66
:100CF000B7270240984BB72702401367270098CBCD
:100D0000B72702400357E4FED8CBB7270240984BE1
:100D1000B72702401367070498CB0100B7270240AA
:100D2000DC47858BE5FFB7270240984BB727024089
:100D3000759B98CB49370100F2406244056182807F
:100D4000797106D622D40018232EA4FC232CB4FCDF
:100D5000B287231BF4FC835764FD858BC207C183D4
:100D6000DDC3835764FD8583231BF4FC8327C4FD07
:100D7000C207C1833E85B93FB72702409C4B93F71A
:100D8000070891C32137B7270240984BB727024085
:100D90001367170098CB232604FE1DA88327C4FEE3
:100DA0008607032784FDBA970327C4FE0607BA8681
:100DB0000327C4FD36979E231EA30100B7270240D8
:100DC000DC47858BE5FF8327C4FE85072326F4FED9
:100DD000835764FD0327C4FEE342F7FC835764FD99
:100DE00086073E87832784FDBA979423835764FD43
:100DF00086073E878327C4FDBA973E8793970601EF
:100E0000C1831EA3B5A8835764FD8583231BF4FC0F
:100E10008327C4FDC207C1833E856D3DB7270240CD
:100E20009C4B93F7070891C39535B7270240984B21
:100E3000B72702401367170098CB232404FE1DA890
:100E4000832784FE8607032784FDBA97032784FE41
:100E50000607BA860327C4FD36979E231EA301000A
:100E6000B7270240DC47858BE5FF832784FE850793
:100E70002324F4FE835764FD032784FEE342F7FC3A
:100E80000100B7270240DC47858BE5FFB72702400A
:100E9000984BB7270240799B98CB313D0100B25067
:100EA000225445618280797122D60018232EA4FC39
:100EB000232CB4FCB287231BF4FC835764FD858B81
:100EC000C207C183BDC7835764FD8583231BF4FC20
:100ED000231704FE35A08357E4FE86073E87832749
:100EE000C4FDBA97BE868357E4FE8607032784FDB8
:100EF000BA979A229AA38357E4FE85072317F4FE34
:100F00000357E4FE835764FDE367F7FC835764FDF2
:100F100086073E878327C4FDBA979A23835764FDCB
:100F20008607BE86832784FDB6971377F70F98A3AD
:100F3000A1A0835764FD8583231BF4FC231604FEC4
:100F400035A08357C4FE86073E878327C4FDBA9722
:100F5000BE868357C4FE8607032784FDBA979A226C
:100F60009AA38357C4FE85072316F4FE0357C4FED5
:100F7000835764FDE367F7FC0100325445618280CA
:100F8000011122CE00102326A4FE37E700E08327BC
:100F9000C4FEBA9783C7074093F7F70F958393F77B
:100FA000F70F3E85724405618280411106C622C456
:100FB0000008EFF06FD3EFF02FDAEFF00FF40D47EA
:100FC00081460146B54537150140A5367D5723803A
:100FD000E18403C71184018B13677706A380E18442
:100FE00003C72184018B136757042381E18403C75E
:100FF0003184018B13672701A381E18403C74184F6
:10100000018B136717012382E18403C75184018B8D
:1010100013670701A382E18403C76184018B13670F
:1010200097F82383E1849387018405670327070CDE
:101030009375F70FF433818A3686AE86D18EF4B37A
:101040009356870093F5F60F9427818A3686AE86ED
:10105000D18E94A79356070193F5F60F9437818AA2
:101060003686AE86D18E94B713568701B827018B8A
:10107000BA863287558FB8A72D469385018437F5F8
:1010800000087D392D469385C18437F50008213D40
:101090003145FD35AA873E872386E180B717014099
:1010A000096798CB13054006EFF0CFEEB717014064
:1010B0003707002098CB13054006EFF0AFEDF9BFDE
:0410C000D00F4940C4
:00000001FF
