:040000006F30C06F2E
:100004000000000000000000FA360000FA3600008C
:1000140000000000FA3600000000000000000000AC
:10002400FA360000FA36000000000000000000006C
:10003400683A000000000000FA36000000000000EA
:10004400FA360000FA360000FA360000FA360000EC
:10005400FA360000FA360000FA360000FA360000DC
:10006400FA360000FA360000FA360000FA360000CC
:10007400FA360000FA360000FA360000FA360000BC
:10008400FA360000FA360000FA360000FA360000AC
:1000940018010000FA360000FA360000FA360000B3
:1000A400FA360000FA360000FA360000FA3600008C
:1000B400FA360000C83C0000FA360000FA360000A8
:1000C400FA360000FA360000FA360000FA3600006C
:1000D400FA360000BE3A00006C3B00001A3C0000F7
:1000E400FA360000FA36000000010000FA3600007B
:0C00F400FA360000FA360000FA36000070
:10010000411122C6000837050400EF30407E01008F
:100110003244410173002030411122C60008EF1023
:10012000F06401003244410173002030411122C6C5
:100130000008B7170240D44FB717024037078000B6
:10014000558FD8CF0100324441018280411122C62F
:1001500000080D4723A2E18601003244410182805C
:10016000011122CE0010938741882326F4FE8327B5
:10017000C4FEBC2789C7154723A2E18621A00547F5
:1001800023A2E1860100724405618280797106D65E
:1001900022D4001837050400EF306075B70704005B
:1001A000232CF4FC232E04FCC1472320F4FE8547B6
:1001B0002322F4FE930784FD3E85EF30405C9307D5
:1001C00040022304F4FE8547A304F4FE230504FE45
:1001D00085472326F4FE930784FE3E85EF30207783
:1001E0009307A0032304F4FEA30404FE930784FEF4
:1001F0003E85EF30C0750100B250225445618280C7
:10020000011106CE22CC00102326A4FE2324B4FE26
:1002100085451145EF30F0008327C4FEADCBB767AD
:100220000040938707C49C43C207C1833E87B767DA
:100230000040938707C4759B98C3B7170140938705
:100240000780D443B7170140938707803717F0FF23
:100250007D17758FD8C3B717014093870780D447A0
:10026000B71701409387078079771307F77F758F5A
:10027000D8C7B717014093870780D443B717014009
:100280009387078037470400558FD8C39DA8B76769
:100290000040938707C49C43C207C18393E72700AC
:1002A000139707014183B7670040938707C498C33A
:1002B000B717014093870780D443B717014093874E
:1002C00007803717F0FF7D17758FD8C3B717014028
:1002D00093870780D447B7170140938707807977C2
:1002E0001307F77F758FD8C7B7170140938707802B
:1002F000D443B71701409387078037370300558FE2
:10030000D8C3832784FE91CFB747024093870780E5
:100310009843B7470240938707801367270098C325
:1003200021A8B7470240938707809843B747024008
:1003300093870780759B98C30100F2406244056172
:100340008280011106CE22CC0010AA872317F4FE6A
:100350008357E4FE99E783A7818305479AAB8147DA
:1003600001A883A741849C43829783A78183A9071F
:100370003E85F240624405618280411106C622C476
:10038000000883A78183B833B707002093878723AA
:100390009C3363E6E70283A78183BC238DE383A7B5
:1003A0008183DE2389EF03A7818383A78183383389
:1003B000B8A783A74184DC438297814711A089476E
:1003C0003E85B240224441018280011106CE22CCFA
:1003D0000010AA872317F4FE8357E4FE99E783A74A
:1003E000818305479AAB814701A883A741849C4735
:1003F000829783A78183B1073E85F24062440561FD
:100400008280011106CE22CC001083A7C183944FB5
:1004100083A78183D83383A78183BC33BE853A8584
:1004200082962326A4FE83A78183BC27B9C3832792
:10043000C4FE89EB83A78183DC2389E783A78183BB
:10044000BC2399C389473DA08327C4FE9DE383A7AE
:100450004184DC47829703A7818383A78183583334
:10046000B8B703A7818383A781833833D8A781478F
:1004700011A089473E85F24062440561828079710E
:1004800006D622D40018AA87231FF4FC8357E4FD64
:1004900099E783A7818309479AAB81473DA22398B7
:1004A000018283A781839C2393F7F707ADE383A79A
:1004B00081839C37A307F4FE8347F4FE93F707027A
:1004C00091CB83C7018393E7270013F7F70F2388A6
:1004D000E18201A883C70183F59B13F7F70F2388F7
:1004E000E1828347F4FE93F7070491CB83C701832E
:1004F00093E7170013F7F70F2388E182C9A083C79A
:100500000183F99B13F7F70F2388E1824DA883A796
:1005100081839C2313F7F70785476315F7009387BB
:10052000018365A083A781839C2313F7F70789477D
:100530006315F70883A78183DC332307F4FE834721
:10054000E4FEBD8BA306F4FE8307E4FE63DC070232
:100550008347D4FE13972700B7670040938707C0EF
:10056000BA979C43C207C18313F70703C1476318B7
:10057000F70483C7018393E7170013F7F70F238866
:10058000E18235A88347D4FE13972700B767004060
:10059000938707C0BA979C43C207C1833E878D6784
:1005A0007D8F8567631DF70083C7018393E717007D
:1005B00013F7F70F2388E18219A0814739A083A799
:1005C00041849C4B8297938701833E85B25022548D
:1005D00045618280797106D622D4001883A7818371
:1005E0009C2393F7F7072324F4FE832784FE89EFE7
:1005F00083A78183983783A781831377F7FD1377C8
:10060000F70F98B78147D5A4032784FE8947631D58
:10061000F72C83A78183BE2389E783A78183DC230B
:1006200099C38947D9A4B70700209387872323223A
:10063000F4FE83A78183DC332320F4FE832704FEAA
:1006400093F7F7F7232EF4FC8327C4FD232CF4FC47
:1006500083A78183DC33E207E18763D30702832723
:1006600084FD13972700B7670040938707C0BA97A8
:100670009C43C207C18393F707032326F4FE15A00A
:10068000832784FD13972700B7670040938707C02F
:10069000BA979C43C207C1833E878D67F98F232693
:1006A000F4FE832744FE9C233E878327C4FD63F921
:1006B000E7008327C4FE89C783A78183BC2799E30A
:1006C000894725A4832704FE93F70708B9C3832726
:1006D00084FD13972700B7670040938707C0BA9738
:1006E0009C43C207C18313F70703C1476318F71E72
:1006F000832784FD93F7F70F3E85EF20B03B8327D8
:1007000084FD93F7F70F930500033E85EF20100457
:10071000F1A2832784FD13972700B76700409387D2
:1007200007C0BA979C43C207C1833E878D677D8F00
:1007300085676315F71A832784FDF1EF832784FD0E
:1007400013F7F70FB70700209387071C83C7C7026B
:10075000C207C183BE853A85EF20B052832784FD4E
:1007600013972700B7670040938707C0BA979C4349
:10077000139707014183F1779387F7F8F98F9390E7
:10078000070193D000018567B3C7F000939007017C
:1007900093D000018967B3C7F0009390070193D00D
:1007A0000001E17793870708B3E7F000939607010C
:1007B000C182832784FD13972700B7670040938782
:1007C00007C0BA97368798C325A0E17793870708B3
:1007D000B3E7F00093960701C182832784FD139746
:1007E0002700B7670040938707C0BA97368798C33A
:1007F000832784FD13972700B7670040938707C0BE
:10080000BA979C43C207C1833E878D677D8F8D67F2
:10081000E31DF7FAE1A0832784FD93F7F70F3E85E8
:10082000EF20F021832784FD13972700B76700404E
:10083000938707C0BA979C43139707014183F177C9
:100840009387F7F8F98F9390070193D0000185679C
:10085000B3C7F0009390070193D000018967B3C735
:10086000F0009390070193D00001E1779387070888
:10087000B3E7F00093960701C182832784FD1397A5
:100880002700B7670040938707C0BA97368798C399
:1008900025A0E17793870708B3E7F0009396070157
:1008A000C182832784FD13972700B7670040938791
:1008B00007C0BA97368798C3832784FD139727000C
:1008C000B7670040938707C0BA979C43C207C183AC
:1008D0003E878D677D8F8D67E31DF7FA83A741847F
:1008E000DC4B8297814711A089473E85B250225444
:1008F00045618280011106CE22CC001083A781833E
:10090000DC332324F4FE832784FE93F7F7F72322B6
:10091000F4FE832744FE2320F4FE83A78183DC3387
:10092000E207E18763D30702832704FE13972700BA
:10093000B7670040938707C0BA979C43C207C1833B
:1009400093F707032326F4FE15A0832704FE1397CD
:100950002700B7670040938707C0BA979C43C20738
:10096000C1833E878D67F98F2326F4FEB7070020E9
:1009700083C787233E87832704FE63FDE70083A7A1
:100980008183BE2381EB8327C4FE89C783A781832C
:10099000BC2799E38947A5A2832784FE93F707081C
:1009A000CDC7832704FE13972700B76700409387BE
:1009B00007C0BA979C43139707014183E577938754
:1009C000F7FBF98F9390070193D0000193C70001C3
:1009D0009390070193D00001E17793870708B3E76D
:1009E000F00093960701C182832704FE1397270026
:1009F000B7670040938707C0BA97368798C325A08A
:100A0000E17793870708B3E7F00093960701C18267
:100A1000832704FE13972700B7670040938707C01A
:100A2000BA97368798C3832704FE13972700B767C2
:100A30000040938707C0BA979C43C207C18313F74E
:100A40000703C147E31EF7FA75A0832704FE139737
:100A50002700B7670040938707C0BA979C43139756
:100A600007014183F1779387F7F8F98F9390070196
:100A700093D000018567B3C7F0009390070193D02E
:100A80000001E17793870708B3E7F0009396070129
:100A9000C182832704FE13972700B767004093871E
:100AA00007C0BA97368798C325A0E17793870708D0
:100AB000B3E7F00093960701C182832704FE1397E2
:100AC0002700B7670040938707C0BA97368798C357
:100AD000832704FE13972700B7670040938707C05A
:100AE000BA979C43C207C1833E878D677D8F856718
:100AF000E31DF7FA83A741849C4F829781473E8587
:100B0000F240624405618280411106C622C4000899
:100B100083A78183983783A781831367070213779D
:100B2000F70F98B783A74184DC4F829781473E85B2
:100B3000B240224441018280797122D60018AA87EE
:100B4000232CB4FC231FF4FC83A78183BE2B232614
:100B5000F4FE8357E4FD95E3832784FDD6238327A2
:100B6000C4FE13970701418383A781833387E6403F
:100B7000420741839AAB814739A0832784FD98437C
:100B80008327C4FEBA973E853254456182800111A5
:100B900006CE22CC001083A78183C1072324F4FE54
:100BA000832784FE9E232322F4FE832784FE9C4712
:100BB000D1CB832744FED9C7832784FEDE23232697
:100BC000F4FE0327C4FE832744FE63F6E700832771
:100BD00044FE2326F4FE832784FE98478327C4FE21
:100BE000C207C1833E8502972320A4FE832784FE8B
:100BF0009A238327C4FEC207C183B307F740139724
:100C000007014183832784FE9AA3832784FEBA23A6
:100C10008327C4FEC207C183BA9713970701418394
:100C2000832784FEBAA30145EF20807DAA873E87F3
:100C30008327C4FEC207C1833E86BA85032504FE0E
:100C4000EF10E06E832784FE9E2381CF0D672394EF
:100C5000E18481450145EF20607E13070003239561
:100C6000E184832784FE9A23832784FEDE2363673F
:100C7000F70083A781830D4798A7A9A0832784FE47
:100C80009E2391C783A78183154798A725A883270B
:100C900084FE9E2385EB83A78183194798A7B767B6
:100CA0000040938707C59C43C207C1833E87B7377F
:100CB00000208907BA97860723A0070013070003BF
:100CC0002395E1840100F2406244056182807971DC
:100CD00006D622D4001883A78183C1072322F4FEFD
:100CE000832744FE9E232320F4FE83A781839C2731
:100CF0002326F4FE832704FEA9EB0327C4FE9147B5
:100D00006315F70483C7218395CBB76700409387AA
:100D100007C59C43C207C1833E87B73700208907B8
:100D2000BA97860723A00700130700032395E184E1
:100D300091472326F4FE23890182C1A89D472326DB
:100D4000F4FE41472395E184C9A0832744FEDE23B6
:100D50002324F4FE032704FE832784FE63E4E700D4
:100D6000914711A089472326F4FE032784FE832799
:100D700004FE63F6E700832704FE2324F4FE8327A2
:100D800044FE9847832784FEC207C1833E850297AD
:100D9000232EA4FC0145EF200063AA873E8783270A
:100DA00084FEC207C1833E86BA850325C4FDEF10C9
:100DB000804D832784FEC207C183BE850145EF2095
:100DC000E067832744FE9A23832784FEC207C183FA
:100DD000B307F740139707014183832744FE9AA383
:100DE000832744FEBA23832784FEC207C183BA97B0
:100DF000139707014183832744FEBAA31307000317
:100E00002395E1840D672394E18483A781830327DD
:100E1000C4FE1377F70F98A70100B2502254456122
:100E20008280011106CE22CC001089472326F4FED1
:100E300083A781839C332322F4FE83A781839C2391
:100E400093F7F707DDEF032744FEA5476317F70085
:100E5000EFF0AFD22326A4FE29A2032744FE954734
:100E6000631CF70283A78183BC33E207E18763CE6B
:100E7000070083A78183BC2389EB83A78183DE23BB
:100E800089E783A78183BC2789C7A1472324F4FE70
:100E90002DAA232604FEF1A0032744FE8D476314E8
:100EA000F70283A78183B8338547631AF70083A7C6
:100EB0008183DE2389E789392326A4FE5DA0894743
:100EC0002326F4FE79A8032744FE8547631BF70811
:100ED00083A78183B83385476311F70283A7818392
:100EE000DE2381EF83A781839C3793F7070291C7A5
:100EF000EFF04FEE2326A4FEADA089472326F4FE93
:100F00008DA083A781839C2313F7F7078547631C74
:100F1000F700032744FEAD476315F704EFF06FCEEB
:100F20002326A4FE3DA883A781839C2313F7F707FC
:100F300089476315F702032744FE85476317F700C7
:100F4000EFF04FE92326A4FE29A8032744FE8D478E
:100F50006319F70045322326A4FE21A089472326E2
:100F6000F4FE8327C4FE8DC783A7C183D84B832794
:100F700044FE93F7F70F3E8502972326A4FE03272E
:100F8000C4FE8D476316F700A5472324F4FE35A859
:100F90008327C4FE89C7A1472324F4FE3DA09947B7
:100FA0002324F4FEB7670040938707C59C43C2071C
:100FB000C1833E87B73700208907BA97860723A0E9
:100FC0000700130700032395E18483A78183032788
:100FD00084FE1377F70F98A70100F2406244056181
:100FE0008280397106DE22DC800083A781839C33F6
:100FF0002320F4FE232604FE232E04FC032704FEF4
:101000009947631FF70483A781839C2393F7F7070E
:101010006395072083A78183BC23A30DF4FC0347BA
:10102000B4FD85476318F70083A7C183DC4F2326EF
:10103000F4FEE5A20347B4FD89476318F70083A7D0
:10104000C1839C532326F4FEC9AA0347B4FD8D47F0
:101050006315F71C83A7C183DC532326F4FE75AA0E
:10106000832704FE6397071283A78183BE236392BD
:10107000071283A78183FA238947631CF71083A78C
:101080008183DC236397071083A781839C2393F7D5
:10109000F70781EF83A78183DE2381EBB707000089
:1010A0009387E7472326F4FE85AA83A781839C23A1
:1010B00013F7F7078547631AF70283A7C183984F91
:1010C00083A78183DC3381453E850297AA87639598
:1010D000071483A78183BC2763800714B707000028
:1010E0009387E7472326F4FE05AA83A781839C23E1
:1010F00013F7F70789476311F71283A78183DC335E
:10110000BD8B232AF4FC83A78183DC3393F7070785
:101110002328F4FC83A78183DC33E207E18763D3D0
:101120000702832744FD13972700B7670040938782
:1011300007C0BA979C43C207C18393F707032322D2
:10114000F4FE15A0832744FD13972700B7670040DE
:10115000938707C0BA979C43C207C1833E878D67B8
:10116000F98F2322F4FEB707002083C787233E8729
:10117000832744FD63F2E70A832704FDD1EF832729
:1011800044FED9CBB70700009387E7472326F4FE38
:1011900061A0032704FEA147631FF70083A7818393
:1011A0009C2393F7F707B5EBB70700009387273425
:1011B0002326F4FE9DA0032704FEA947631FF7041E
:1011C00083A781839C2313F7F70785476317F704E9
:1011D00083A78183BC27B1C383A78183BE2395EFF7
:1011E00083A78183DC2395EB83A78183FA2385473B
:1011F0006315F70283A7C183984F83A78183DC33EC
:1012000081453E850297AA8789EBB707000093873F
:10121000A73C2326F4FE11A001008327C4FE85C746
:1012200083A781830327C4FD42074183BAAB83A709
:1012300081830327C4FE98CF8327C4FE014582978C
:10124000232404FE2DA083A7C183984B83A7818309
:101250009C333E8502972324A4FE032784FE8D47FA
:101260006317F70083A78183254798A7F9A883A769
:1012700081839A2BC167FD176317F70083A78183CA
:10128000254798A7D9A0032784FE89476306F7005E
:1012900083A781839E2B91E783A78183214798A70A
:1012A0006DA083A781839C23E207E18763D70708AA
:1012B00083A78183FE232326F4FC83A781839E2BAF
:1012C0003E878327C4FC63FAE7000327C4FC83A797
:1012D0008183420741839AABA9A083A781839A2B7C
:1012E00083A78183FE23637EF70283A781839A2BE2
:1012F00083A7C18383C7C702C207C1836375F70091
:101300002389018239A883A781839E2B3E8783A7E7
:10131000C18383C7C702B367F70281E70547238903
:10132000E18283A7C18303C7C70283A781834207E2
:101330004183DAABEFF0BF9909A883A781830D47FA
:1013400098A70D672394E1840100F2506254216153
:101350008280011106CE22CC26CA001085472317B1
:10136000F4FEB7670040938707C59C43C207C1835B
:101370003E87B73700209107BA9786079C43C2077C
:10138000C18386073E87B7670040BA972324F4FEDF
:1013900083A781839827A5476300F70A832784FEE4
:1013A000138717002324E4FE03A781839C231CA337
:1013B000832784FE138717002324E4FE03A7818379
:1013C0009C231CB3032784FE8357E4FE8607BA9749
:1013D0002324F4FE832784FE138727002324E4FEBE
:1013E0009A2383A481833A85EF202023AA87BEA075
:1013F000032784FE8357E4FE8607BA972324F4FE6E
:10140000832784FE138727002324E4FE9A2383A4E2
:1014100081833A85EF206020AA87DEA0032784FE1F
:101420008357E4FE8607BA972324F4FE032784FE3D
:1014300083A781831A23FAA383A78183054798A7EB
:1014400083A78183FE2381E7EFF0BF9D11A0513E6A
:101450002D2AAA873E85F2406244D24405618280EB
:10146000011106CE22CC001083A781839C2723265E
:10147000F4FE0327C4FE89476307F7000327C4FE71
:101480009147631AF700EFF09F8483A781839C271D
:101490002326F4FEB1A00327C4FE9947631FF70279
:1014A00083A78183983395476311F70283A78183CC
:1014B0009C2393F7F70791EB83A78183BC333E8589
:1014C000312A83A741849C53829783A7C1839C4779
:1014D0008297A1472326F4FE21A0A1472326F4FEEC
:1014E00083A781830327C4FE1377F70F98A771287A
:1014F000AA873E85F240624405618280011106CED2
:1015000022CC001083A781839C272326F4FE032787
:10151000C4FE89476307F7000327C4FE914763169B
:10152000F700A1472326F4FE99A00327C4FE8D47A8
:101530006307F7000327C4FE9547631AF700EFF02F
:101540000FE583A781839C272326F4FE0DA00327A4
:10155000C4FE9D47631AF70083A7C183DC478297C7
:10156000A1472326F4FE21A0A1472326F4FE83A74A
:1015700081830327C4FE1377F70F98A73920AA8722
:101580003E85F240624405618280411106C622C454
:101590000008B70700209387071C83C7C702C2074C
:1015A000C183BE850145EF10D06D83A78183982745
:1015B000A1476318F70005672394E1844147239509
:1015C000E18483A781839C27DD1793B7170093F7E6
:1015D000F70F3E85B240224441018280797122D6C4
:1015E0000018AA87A30FF4FCB707002083C787233E
:1015F0002324F4FE232604FE85A08327C4FE93F74C
:10160000F70F13972700B7670040938707C0BA9773
:101610009C43C207C1833E8785679387F7F07D8F20
:10162000A16793870708D98F0327C4FE1377F70FA5
:10163000B3E6E7008327C4FE93F7F70F139727005D
:10164000B7670040938707C0BA97368798C3832748
:10165000C4FE85072326F4FE0327C4FE832784FEE9
:10166000E36DF7F88347F4FD93E707F813F7F70FF7
:10167000B76700409387C7C498C3010032544561DF
:101680008280411122C6000801003244410182805B
:10169000797106D622D40018232EA4FC232CB4FC86
:1016A000B287A30BF4FC230704FE0325C4FDEF302F
:1016B000A001AA872307F4FE8347E4FE850793F77A
:1016C000F70F860713F7F70F832784FD98A3832767
:1016D00084FD8507034774FD98A3A30704FE35A87E
:1016E0008347F4FE0327C4FD3E978347F4FE850736
:1016F0008607BE86832784FDB697182398A3834761
:10170000F4FE86078D07032784FDBA972380070020
:101710008347F4FE8507A307F4FE0347F4FE8347DF
:10172000E4FEE36FF7FA832784FD9C233E85B250E5
:10173000225445618280411106C622C426C24AC095
:10174000000883C7018A93F7F70F13976700B7075D
:1017500000209387C72EB304F7000545EF10504AC9
:10176000AA873E890545EF101067AA873E86CA857D
:101770002685EF00D03B83C7018A93F7F70F3E879A
:101780009387018ABA9713070004B8B383C7018A05
:1017900093F7F70F850713F7F70F2380E18A83C7C5
:1017A000018A13F7F70FC1476314F7002380018AFA
:1017B0009387018ABC2393F7F70F850713F7F70F79
:1017C0009387018AB8A39387018ABC2313F7F70F85
:1017D000AD4763FBE70089650545EF10700593870A
:1017E000018A0547B8BB21A00545EF10F0120100A2
:1017F000B24022449244024941018280411122C6F2
:101800000008A38901820100324441018280011154
:1018100006CE22CC0010AA872324B4FE3287A30769
:10182000F4FEBA872316F4FE0347F4FE8947631AD1
:10183000F70283C7318399C385472DA08357C4FE20
:101840003E86832584FE13052008EF10906405472B
:10185000A389E182930500030945EF10206F8147BA
:1018600011A085473E85F2406244056182804111A6
:1018700006C622C400080D46B70700209385070856
:10188000B7070020138507002135AA8713970701A2
:101890004183B707002093874721DAA70D46B70792
:1018A000002093854710B707002013850704CD3328
:1018B000AA87139707014183B70700209387472121
:1018C000DAAB1387418823ACE18283A78183094780
:1018D00098A7370700201307071C23AEE1823707BC
:1018E00000201307071F23A2E18483A7C1839C4321
:1018F00082970100B240224441018280011106CE4C
:1019000022CC26CA4AC80010231704FE2DAD83D767
:10191000E184C207C18393F7F70FBD8B13F7F70F6D
:10192000238AE18283C7418363940754B7670040E9
:10193000938707C09C431397070141832394E18455
:1019400083D78184C207C18393F7070313970701E5
:1019500041832395E18483D78184139707014183D1
:101960008D67F98F1397070141832394E184B7674B
:101970000040938707C09C43C207C1833E87A56789
:101980009387F7FB3379F700B7670040938707C069
:101990009C43C207C1833E87B1679387F7F8B3744E
:1019A000F7008967BD8C1349090293170901C183A8
:1019B000B3E6F400B7670040938707C021671307B9
:1019C0000708558F98C305A0131709014183E177D4
:1019D00093870708D98F139707014183B7670040A2
:1019E000938707C098C3B7670040938707C09C439D
:1019F000C207C18313F7070393070002E316F7FC3E
:101A000005A0139704014183E17793870708D98FD5
:101A1000139707014183B7670040938707C098C3B6
:101A2000B7670040938707C09C43C207C1833E87C6
:101A30008D677D8F8967E316F7FC83D7E184C20742
:101A4000C183C18B639A0714B7670040938707C0AF
:101A50009C43C207C183BE86B7670040938707C017
:101A600025671307F7F0758F98C3EFF07F9FB7676F
:101A70000040938707C09C43C207C1833E87A56788
:101A80009387F7FB3379F700B7670040938707C068
:101A90009C43C207C1833E87B1679387F7F8B3744D
:101AA000F70083D781841397070141838567F98FF6
:101AB000C207C18399C38567BD8C83D7818413977F
:101AC000070141838967F98FC207C18399C3896779
:101AD000BD8C83D7A184C207C183C18BC207C183D8
:101AE00099C31349090183D7A184C207C18393F71E
:101AF0000702C207C18399C3134909029317090159
:101B0000C183B3E6F400B7670040938707C021673D
:101B100013070708558F98C305A0131709014183C0
:101B2000E17793870708D98F139707014183B76738
:101B30000040938707C098C3B7670040938707C0EA
:101B40009C43C207C18393F7070303D7A1844207CD
:101B50004183E394E7FC05A0139704014183E177F7
:101B600093870708D98F139707014183B767004010
:101B7000938707C098C3B7670040938707C09C430B
:101B8000C207C1833E878D67F98F03D781844207DF
:101B90004183E393E7FCE9A6B7670040938707C05A
:101BA0009C43C207C1832317F4FE8357E4FEC20798
:101BB000C1833E87856793870780F98F638A0714FF
:101BC000B7670040938707C09C43C207C183BE86A6
:101BD000B7670040938707C005671307F7F8758F4D
:101BE00098C3EFF00FF7B7670040938707C09C4397
:101BF000C207C1833E87A5679387F7FB3379F70058
:101C0000B7670040938707C09C43C207C1833E87E4
:101C1000B1679387F7F8B374F70083D7818413977C
:101C2000070141838567F98FC207C18399C385671F
:101C3000BD8C83D781841397070141838967F98F0E
:101C4000C207C18399C38967BD8C83D7A184C207AA
:101C5000C183C18BC207C18399C31349090183D7CB
:101C6000A184C207C18393F70702C207C18399C346
:101C70001349090293170901C183B3E6F400B7675A
:101C80000040938707C0216713070708558F98C343
:101C900005A0131709014183E17793870708D98FBE
:101CA000139707014183B7670040938707C098C324
:101CB000B7670040938707C09C43C207C18393F76F
:101CC000070303D7A18442074183E394E7FC05A0FF
:101CD000139704014183E17793870708D98F1397FE
:101CE00007014183B7670040938707C098C3B76770
:101CF0000040938707C09C43C207C1833E878D671E
:101D0000F98F03D7818442074183E393E7FC89ACD1
:101D10008357E4FEC207C183C207C18763D5072288
:101D2000B7670040938707C09C43C207C183BE8644
:101D3000B7670040938707C005671307F7F8758FEB
:101D400098C3EFF0AFFBB7670040938707C09C4391
:101D5000C207C1833E87A5679387F7FB3379F700F6
:101D6000B7670040938707C09C43C207C1833E8783
:101D7000B1679387F7F8B374F70083D7818413971B
:101D8000070141838567F98FC207C18399C38567BE
:101D9000BD8C83D781841397070141838967F98FAD
:101DA000C207C18399C38967BD8C83D7A184C20749
:101DB000C183C18BC207C18399C31349090183D76A
:101DC000A184C207C18393F70702C207C18399C3E5
:101DD0001349090293170901C183B3E6F400B767F9
:101DE0000040938707C0216713070708558F98C3E2
:101DF00005A0131709014183E17793870708D98F5D
:101E0000139707014183B7670040938707C098C3C2
:101E1000B7670040938707C09C43C207C18393F70D
:101E2000070303D7A18442074183E394E7FC05A09D
:101E3000139704014183E17793870708D98F13979C
:101E400007014183B7670040938707C098C3B7670E
:101E50000040938707C09C43C207C1833E878D67BC
:101E6000F98F03D7818442074183E393E7FCCDA830
:101E700083C7418313972700B7670040938707C044
:101E8000BA979C43C207C1832317F4FE8357E4FE2D
:101E9000C207C183C207C18763D9070483C74183CF
:101EA00013972700B7670040938707C0BA979C43F2
:101EB000C207C183BE8683C7418313972700B767D4
:101EC0000040938707C0BA9705671307F7F8758F27
:101ED00098C383C741831387F7FFB70700200A071A
:101EE0009387471ABA979C4382978357E4FEC207A9
:101EF000C18393F70708A1CB83C7418313972700BA
:101F0000B7670040938707C0BA979C43C207C18355
:101F1000BE8683C7418313972700B7670040938726
:101F200007C0BA9725671307F7F0758F98C383C763
:101F300041831387F7FFB70700200A0793878718A5
:101F4000BA979C438297B7670040938747C49C43E6
:101F5000C207C1832397F184C207C187E3C9079AE7
:101F6000F2406244D244424905618280397106DE02
:101F700022DC8000232604FEB7670040938707C554
:101F80009C43C207C1833E87B73700209907BA97A1
:101F900086079843C167938707C0F98F03D7C18429
:101FA0006382E704B7670040938707C5944393971C
:101FB0000601C1833E87B73700209907BA97860785
:101FC000984383D7C1843E86C167938707C0F18F4A
:101FD000C206C1823686B73600209906B2968606BA
:101FE000D98F9CC2B7670040938747C49C4313971F
:101FF000070141832397E18483D7E184C207C1832A
:1020000093F7072003D70184F98F95C3B767004082
:10201000938747C441671307F7DF98C383C70185D8
:1020200093F7F70F850713F7F70F2388E18483D71A
:10203000E184C207C1833E87A167F98F03D701847A
:10204000F98F99C3EFF09F8B83D7E184C207C183D7
:1020500093F7074003D70184F98F99CFB767004002
:10206000938747C441671307F7BF98C3B70700209A
:102070009387071CDC43829783D7E184C207C1831F
:102080003E878967F98F03D70184F98F81CBB767C2
:102090000040938747C439677D1798C383D7E1848D
:1020A000C207C1833E878567F98F03D70184F98F03
:1020B00099CBB7670040938747C43D677D1798C3A6
:1020C0000145EF00B04B83D7E184C207C1833E874F
:1020D000856793870780F98F03D70184F98F85C7B8
:1020E00083C7418293F7F70F81C7EF00502E21A0DD
:1020F0000945EF00B048B7670040938747C43D6784
:102100001307F77F98C383D7E184C207C18393F78E
:10211000071003D70184F98F63820716B767004061
:10212000938747C441671307F7EF98C3B767004029
:10213000938787C49C43C207C18763DC071283A7C8
:1021400041851387170023AAE18403A741858D47A2
:1021500063F3E712B7670040938707C49C43C20745
:10216000C183A18B63990710B7670040938707C4A9
:102170009C43C207C1833E8723ACE184232604FE2F
:102180001DA88327C4FE13972700B76700409387D5
:1021900007C0BA979C43C207C1833E878327C4FE0A
:1021A0008A07930604FFB69723AEE7FC8327C4FE95
:1021B00085072326F4FE0327C4FE9D47E3F3E7FCCF
:1021C00083A7818513E7170023ACE18483A781856A
:1021D000139707014183B7670040938707C498C3EB
:1021E00083A7818513F7E7FF23ACE18483A781856B
:1021F000139707014183B7670040938707C498C3CB
:102200000100B7670040938747C49C43C207C1835E
:1022100093F70740FDD7B7670040938747C44167EE
:102220001307F7BF98C3232604FE25A88327C4FEFF
:102230008A07130704FFBA9783A7C7FD9396070180
:10224000C1828327C4FE13972700B7670040938796
:1022500007C0BA97368798C38327C4FE850723260D
:10226000F4FE0327C4FE9D47E3F2E7FC23AA0184A2
:1022700019A023AA01841D45EF0050300100F2503F
:10228000625421618280397122DE80002326A4FC01
:10229000AE8732872315F4FCBA872314F4FC8357E6
:1022A00084FC850785872322F4FE0357A4FCB737F7
:1022B0000020BA9786072324F4FE832744FE2326B2
:1022C000F4FEB9A88327C4FC9C232320F4FE8327B3
:1022D000C4FC85072326F4FC8327C4FC9C23A207A7
:1022E0003E87832704FED98F232EF4FC832784FEA8
:1022F000138727002324E4FE0327C4FD42074183FC
:102300009AA3832784FE89072324F4FE8327C4FC31
:1023100085072326F4FC8327C4FEFD172326F4FE3D
:102320008327C4FEC5F30100725421618280797154
:1023300022D60018232EA4FCAE873287231DF4FC7E
:10234000BA87231CF4FC835784FD850785872322E5
:10235000F4FE0357A4FDB7370020BA97860723245D
:10236000F4FE832744FE2326F4FE25A8832784FE5B
:10237000138747002324E4FE94438327C4FD138777
:102380001700232EE4FC1397060141839AA38327A9
:10239000C4FD8507232EF4FC8327C4FEFD172326E6
:1023A000F4FE8327C4FEF9F30100325445618280B4
:1023B000011122CE0010938741882326F4FE832743
:1023C000C4FEBC2781C7154723A2E18601007244E1
:1023D00005618280411122C60008114723A2E186CF
:1023E0000100324441018280411122C600080100EF
:1023F000324441018280411122C60008010032446A
:1024000041018280011122CE001083A781839C2389
:1024100013F7F707930710026316F70283A7818368
:102420009833A5476310F702231704FE31A08357A2
:10243000E4FE85072317F4FE0357E4FE9307F00339
:10244000E3F7E7FE0100724405618280411122C674
:1024500000080100324441018280011106CE22CCE5
:10246000001083A7818323850700EF00A070A307D6
:1024700004FE89A08347F4FE13972700B767004046
:10248000938707C0BA979C43C207C183BE86834720
:10249000F4FE13972700B7670040938707C0BA97E9
:1024A00005671307F7F0758F98C38347F4FE850718
:1024B000A307F4FE0347F4FE9D47E3FDE7FAB76781
:1024C0000040938747C41307F00F98C3EF102019FB
:1024D00023A2018681450145EFD09FD25145EF10DF
:1024E000503485450545EFD0BFD10100F24062442C
:1024F00005618280411106C622C4000883A781833A
:102500002385070083A7818311671307076F78333B
:1025100098B783A78183A38507000145EF00F019D1
:10252000930500200145EF00D01BC1450145EF0098
:10253000F021930500040145EF00F06393050008C6
:102540000145EF00705E0145EF003049B7070020FC
:102550009387071C83C7C702C207C183BE85014595
:10256000EF0030720145EF00303BB76700409387C2
:1025700007C09C43C207C1833E879167F98F95C707
:10258000B7670040938707C09C43C207C1833E875B
:1025900085679387F7F07D8FB167938707085D8F15
:1025A000B7670040938707C098C3B7670040938719
:1025B00007C09C43C207C18393F7070495C7B76759
:1025C0000040938707C09C43C207C1833E8785674D
:1025D0009387F7F07D8FA1679387070C5D8FB767AF
:1025E0000040938707C098C3930500600545EF003E
:1025F000500F81450545EF0070159305000C05450A
:10260000EF007057930500040545EF0090678D6556
:102610000545EF00F021B7670040938747C09C4312
:10262000C207C18393F7070495C7B7670040938734
:1026300047C09C43C207C1833E8785679387F7F0F5
:102640007D8FA1679387070C5D8FB76700409387E5
:1026500047C098C3B7670040938747C09C43C207F1
:10266000C1833E879167F98F95C7B767004093870D
:1026700047C09C43C207C1833E8785679387F7F0B5
:102680007D8FB167938707085D8FB7670040938799
:1026900047C098C3930500600945EF009004930577
:1026A00000100945EF005048930500020945EF006E
:1026B000F00981450945EF00B017B76700409387DF
:1026C00087C09C43C207C18393F7070495C7B767C8
:1026D0000040938787C09C43C207C1833E878567BC
:1026E0009387F7F07D8FA1679387070C5D8FB7679E
:1026F0000040938787C098C3B7670040938787C01F
:102700009C43C207C1833E879167F98F95C7B7671E
:102710000040938787C09C43C207C1833E8785677B
:102720009387F7F07D8FB167938707085D8FB76751
:102730000040938787C098C30145EFE03FEA054713
:1027400023A2E1860100B2402244410182800111AE
:1027500006CE22CC0010AA872317F4FE0357E4FE0E
:10276000B70700209385C7233A85EFE0EFBCAA871F
:102770003E85F240624405618280011106CE22CC82
:102780000010AA872317F4FE0357E4FE9385C18047
:102790003A85EFE06FBAAA873E85F2406244056150
:1027A0008280797106D622D40018AA87231FF4FCF0
:1027B00083A78183BC33A307F4FE0347F4FE91474C
:1027C00063F4E70081470DA08347F4FE13973700B9
:1027D000B7070020938747213E978357E4FDBA85CA
:1027E0003E85EFE06FB5AA873E85B2502254456121
:1027F0008280797106D622D40018AA87231FF4FCA0
:1028000083A78183DC33A307F4FE0347F4FE8947E3
:1028100063F4E700814739A88347F4FE1397370034
:10282000938741813E978357E4FDBA853E85EFE06B
:10283000AFB0AA873E85B25022544561828079713B
:1028400006D622D40018AA87231FF4FC83A781830D
:10285000DC33A307F4FE0347F4FE894763F4E70083
:10286000814739A88347F4FE139737009387C181C6
:102870003E978357E4FDBA853E85EFE0EFABAA872C
:102880003E85B250225445618280011122CE001053
:10289000AA872E87A307F4FEBA872307F4FE83478F
:1028A000E4FE99C3894709A80347F4FE854763F40A
:1028B000E700894711A081473E8572440561828007
:1028C000797106D622D40018AA87A30FF4FC83A737
:1028D00081839C332324F4FE232604FE232204FE5A
:1028E00083A781839C2313F7F70785476316F706B1
:1028F00083A78183BC23A301F4FE034734FE93071F
:1029000020026319F700B72700009387277F23264B
:10291000F4FE29A8034734FE930710026318F7005A
:10292000B73700009387E7832326F4FE8327C4FE8E
:1029300095C383A78183032744FE42074183BAAB33
:1029400083A781830327C4FE98CF8327C4FE014554
:1029500082974DA8894745A883A781839C2313F7B5
:10296000F70793071002631FF708032784FE8547C4
:10297000631FF70083A78183130700049AAB83A723
:10298000818337370000130787AA98CFA5A80327AC
:1029900084FE8947631EF70083A7818305479AABAE
:1029A00083A7818337370000130787B098CF99A892
:1029B000032784FE8D47631EF70083A781830547A5
:1029C0009AAB83A78183373700001307E7B398CF0B
:1029D00015A8032784FEA5476314F70203A7818384
:1029E00083A781837A239AAB83A78183373700003B
:1029F000130787AD98CF83A781830D4798A719A0A8
:102A0000894711A081473E85B2502254456182809A
:102A1000797122D60018AA87A30FF4FC83A78183BB
:102A20009C332326F4FE83A78183DC33A305F4FEC5
:102A300083A781839C2313F7F70793071002631082
:102A4000F7060327C4FEA9476313F7020347B4FE42
:102A5000894763F4E7008947A1A083A78183834660
:102A6000B4FEB8239387C185B69798A30DA8032712
:102A7000C4FEAD476313F7020347B4FE894763F40E
:102A8000E700894731A883A781838346B4FEB83322
:102A900093870186B69798A319A0894711A081470B
:102AA0003E85325445618280797122D60018AA870A
:102AB000231FF4FC83A78183DC33A307F4FE0347C1
:102AC000F4FE854763F4E700814719A0938741CD61
:102AD0003E85325445618280797122D60018AA87DA
:102AE000231FF4FC83A78183DC33A307F4FE034791
:102AF000F4FE854763F4E700814719A0938741CD31
:102B00003E85325445618280797122D60018AA87A9
:102B1000231FF4FC83A78183DC33A307F4FE034760
:102B2000F4FE854763F4E700814731A00347F4FED4
:102B30009387C185BA973E85325445618280797109
:102B400022D60018AA87231FF4FC83A78183DC33D5
:102B5000A307F4FE0347F4FE894763F4E7008147C7
:102B600031A00347F4FE93870186BA973E8532541D
:102B700045618280011122CE001085472317F4FEA3
:102B8000B7670040938707C40357E4FE98C32390B8
:102B9000018403D70184B7670040938707C498C3B3
:102BA000B7670040938747C423A00700096713074E
:102BB00007C02390E18403D70184B767004093875F
:102BC00007C498C381473E85724405618280011124
:102BD00006CE22CC0010232604FEB7670040938760
:102BE00007C49C432315F4FE232604FE15A883275F
:102BF000C4FE13972700B7670040938707C0BA97B2
:102C00009C43C207C183BE860327C4FE0A0793877D
:102C100041CBBA9794C38327C4FE85072326F4FECD
:102C20000327C4FE9D47E3F4E7FC8357A4FE93E724
:102C300007402315F4FEB7670040938707C4035786
:102C4000A4FE98C38357A4FE93E717002315F4FE50
:102C5000B7670040938707C40357A4FE98C3835700
:102C6000A4FEF99B2315F4FEB7670040938707C4C1
:102C70000357A4FE98C30100B7670040938747C479
:102C80009C43C207C18393F70740FDD7B767004055
:102C9000938747C441671307F7BF98C3232604FEF1
:102CA0001DA80327C4FE0A07938741CBBA979C430C
:102CB00093960701C1828327C4FE13972700B76745
:102CC0000040938707C0BA97368798C38327C4FE0E
:102CD00085072326F4FE0327C4FE9D47E3F3E7FCA4
:102CE0008357A4FE93E787002315F4FEB7670040DF
:102CF000938707C40357A4FE98C3B7670040938720
:102D000007C49C432315F4FE8357A4FE93E74700B2
:102D10002315F4FEB7670040938707C40357A4FE4A
:102D200098C3EFD0AFC20100F240624405618280D7
:102D3000011106CE22CC0010B7670040938707C46C
:102D40009C432317F4FE8357E4FEED9B2317F4FE08
:102D5000B7670040938707C40357E4FE98C3EFD0DA
:102D60002FC0B7670040938707C43167130707F088
:102D700098C30100F240624405618280797106D6F1
:102D800022D40018232EA4FC0327C4FD9D4763060C
:102D9000F7000327C4FD23A4E18683A78186154796
:102DA0006361F71013972700916793870778BA97A5
:102DB0009C43828783A7018791E79D3F194723A4FE
:102DC000E186FDA0154723A4E186DDA095371147D4
:102DD00023A4E186054723A8E186D9A893878186A5
:102DE0000947D8A30D4723A4E186D9A093878186FC
:102DF000DC2393F7F70FFD1713F7F70F93878186FF
:102E0000D8A393878186DC2393F7F70FD9EF114777
:102E100023A4E18659A8B7670040938707C49C4361
:102E20002317F4FE8357E4FE93E707012317F4FE0C
:102E3000B7670040938707C40357E4FE98C315475C
:102E400023A4E186938781862947D8A395A09387F9
:102E50008186DC2393F7F70FFD1713F7F70F93879E
:102E60008186D8A393878186DC2393F7F70FA1E3AC
:102E7000B7670040938707C49C432317F4FE83572A
:102E8000E4FEBD9B2317F4FEB7670040938707C499
:102E90000357E4FE98C3194723A4E18623A80186BB
:102EA00039A0194723A4E18621A0010011A0010047
:102EB0000100B250225445618280011122CE0010DF
:102EC000AA872317F4FE8356E4FEB7670040938772
:102ED00007C541676117758F98C30100724405618A
:102EE0008280011122CE0010AA872E87A307F4FE4C
:102EF000BA872316F4FE8347F4FE13972700B767BB
:102F00000040938707C0BA979C43139707014187F6
:102F1000E5779387F798F98F139707014187831710
:102F2000C4FED98FC207C18793960701C182834728
:102F3000F4FE13972700B7670040938707C0BA973E
:102F4000368798C30100724405618280011122CE48
:102F500026CC0010AA872E87A307F4FEBA87231673
:102F6000F4FE8347F4FE13972700B767004093876A
:102F700007C0BA979C43139707014183E57793876E
:102F8000F7FBF98F93940701C1808357C4FEC18B6F
:102F9000C207C18391C793C7040193940701C180FD
:102FA0008357C4FE93F70702C207C18391C793C733
:102FB000040293940701C180E17793870708C58FC6
:102FC00093960701C1828347F4FE13972700B767E2
:102FD0000040938707C0BA97368798C31DA0E17752
:102FE00093870708C58F93960701C1828347F4FE34
:102FF00013972700B7670040938707C0BA973687B3
:1030000098C38347F4FE13972700B7670040938760
:1030100007C0BA979C43C207C18313F707038357BE
:10302000C4FEE31EF7FA01007244E24405618280A7
:10303000011122CE26CC0010AA872E87A307F4FE0A
:10304000BA872316F4FE8347F4FE13972700B76769
:103050000040938707C0BA979C43139707014183A9
:10306000F1779387F7F8F98F93940701C18003579D
:10307000C4FE8567F98FC207C18391C78567A58F95
:1030800093940701C1800357C4FE8967F98FC20773
:10309000C18391C78967A58F93940701C180E177A8
:1030A00093870708C58F93960701C1828347F4FE73
:1030B00013972700B7670040938707C0BA973687F2
:1030C00098C31DA0E17793870708C58F93960701E2
:1030D000C1828347F4FE13972700B76700409387A8
:1030E00007C0BA97368798C38347F4FE1397270023
:1030F000B7670040938707C0BA979C43C207C18354
:103100003E878D677D8F8357C4FEE31DF7FA01006C
:103110007244E24405618280011122CE26CC001067
:10312000AA87A307F4FE8347F4FE13972700B76727
:103130000040938707C0BA979C43139707014183C8
:10314000F1779387F7F8F98F93940701C18085672A
:10315000A58F93940701C1808967A58F9394070178
:10316000C180E17793870708C58F93960701C182D5
:103170008347F4FE13972700B7670040938707C083
:10318000BA97368798C31DA0E17793870708C58F44
:1031900093960701C1828347F4FE13972700B76710
:1031A0000040938707C0BA97368798C38347F4FED9
:1031B00013972700B7670040938707C0BA979C43CF
:1031C000C207C1833E878D677D8F8D67E31EF7FA47
:1031D00001007244E24405618280011122CE001098
:1031E000AA87A307F4FE8347F4FE13972700B76767
:1031F0000040938707C0BA979C4313970701418704
:1032000085679387F7E0F98F139707014187E17787
:1032100093870708D98FC207C18793960701C18298
:103220008347F4FE13972700B7670040938707C0D2
:10323000BA97368798C301007244056182800111F4
:1032400022CE0010AA87A307F4FE8347F4FE13974B
:103250002700B7670040938707C0BA979C43C2070F
:10326000C1833E879167F98FB1C38347F4FE1397FB
:103270002700B7670040938707C0BA979C43C207EF
:10328000C1833E8785679387F7F07D8FB16793870A
:103290000708B366F7008347F4FE13972700B76764
:1032A0000040938707C0BA97368798C301007244DD
:1032B00005618280011122CE0010AA87A307F4FEC7
:1032C0008347F4FE13972700B7670040938707C032
:1032D000BA979C43C207C18393F70704B1C38347DE
:1032E000F4FE13972700B7670040938707C0BA978B
:1032F0009C43C207C1833E8785679387F7F07D8F24
:10330000A1679387070CB366F7008347F4FE139712
:103310002700B7670040938707C0BA97368798C3DE
:103320000100724405618280011122CE0010AA873B
:103330002E87A307F4FEBA872316F4FE8357C4FE34
:103340008583C207C18393961700B76700409387B0
:1033500007C59C43C207C1833E878347F4FE8E079F
:103360003E97B7370020BA978607368798C3010083
:10337000724405618280011122CE0010AA872E8737
:10338000A307F4FEBA872316F4FE8357C4FE858391
:10339000C207C18393961700B7670040938707C59C
:1033A0009C43C207C1833E878347F4FE8E073E9746
:1033B000B73700209107BA978607368798C3010070
:1033C000724405618280011122CE0010AA87A307F2
:1033D000F4FEB7670040938707C59C43C207C183CB
:1033E0003E878347F4FE8E073E97B7370020BA9793
:1033F00086079C43C207C1833E8572440561828073
:10340000011122CE0010AA87A307F4FEB76700407F
:10341000938707C59C43C207C1833E878347F4FE59
:103420008E073E97B73700209107BA9786079C43CF
:10343000C207C1833E85724405618280011122CE9C
:103440000010AA872E87A307F4FEBA872316F4FE7E
:10345000B7670040938707C59C43C207C1833E8777
:103460008347F4FE8E073E97B73700208907BA9747
:1034700086073E878357C4FE1CC301007244056162
:103480008280797122D60018AA872E87A30FF4FCB8
:10349000BA87231EF4FCB7670040938707C59C4397
:1034A000C207C1833E878347F4FD8E073E97B73737
:1034B00000209907BA9786072324F4FE0357C4FD1A
:1034C0009307E00363FBE7028357C4FD958323174B
:1034D000F4FE8357C4FDFD8B91E78357E4FEFD178F
:1034E0002317F4FE8357E4FE1397A700A167D98F33
:1034F0003E87832784FE98C335A08357C4FD858308
:103500002317F4FE8357C4FD858B91C78357E4FED0
:1035100085072317F4FE8357E4FEAA073E87832717
:1035200084FE98C38347F4FDDDE3B707002093874B
:10353000071C03C7C7029307E00363FAE704B70752
:1035400000209387071C83C7C702958393F7F70F63
:103550002316F4FEB70700209387071C83C7C70212
:10356000FD8B91E78357C4FEFD172316F4FE8357A6
:10357000C4FEAA07139707014187E177D98FC207D5
:10358000C1871397070141832396E18489A0B70778
:1035900000209387071C83C7C702858393F7F70F23
:1035A0002316F4FEB70700209387071C83C7C702C2
:1035B000858B91C78357C4FE85072316F4FE835776
:1035C000C4FEAA071397070141832396E1840100F3
:1035D000325445618280011122CE0010AA87A307D0
:1035E000F4FEB7670040938707C59C43C207C183B9
:1035F0003E878347F4FE8E073E97B7370020990732
:10360000BA9786079C43C207C18393F7F73FC20767
:10361000C1833E85724405618280797122D600188B
:10362000AA87231FF4FC8357E4FDA307F4FE835706
:10363000E4FDA183C207C183139707014187834734
:10364000F4FEA207C207C187D98FC207C18723161C
:10365000F4FE8357C4FE3E85325445618280411199
:1036600022C60008B7670040938747C423A007001D
:103670007177130707F02390E18403D70184B767BC
:103680000040938707C498C381473E853244410177
:103690008280011106CE22CC0010AA872324B4FE1A
:1036A0002322C4FEA307F4FE8347F4FE93F7F70733
:1036B00093F7F70F3E85EFF01FD1AA873E87832748
:1036C00044FEC207C1833E86BA85032584FEEFE02F
:1036D0009FBB8347F4FE93F7F70793F7F70F032792
:1036E00044FE42074183BA853E85EFF03FD58147CE
:1036F0003E85F24062440561828001A097D1FF1FA0
:103700009381C13317F1FF1F1301C10F171500007B
:103710001305C50897D5FF1F9385C58E13860183B2
:1037200063FAC5008322050023A055001105910509
:10373000E3EAC5FE13850183938581D66377B500DF
:10374000232005001105E36DB5FEFD42739002BC18
:103750008D4273904280930280087390023097D21A
:10376000FFFF9382628A93E2320073905230971285
:103770000000938222DC7390123473002030797140
:1037800022D60018232EA4FC232604FEB7070140EE
:10379000938707402326F4FE8327C4FDDC4763801C
:1037A0000712B70701409387074094438327C4FD5E
:1037B0009C4313C7F7FFB707014093870740758FF6
:1037C00098C3B707014093870740D4438327C4FDBC
:1037D0009C4313C7F7FFB707014093870740758FD6
:1037E000D8C38327C4FDDC430327C4FEBA9723262E
:1037F000F4FE8327C4FE94438327C4FD98438327A4
:10380000C4FE558F98C3B70701409387074094477C
:103810008327C4FD9C4313C7F7FFB7070140938775
:103820000740758F98C7B707014093870740D44773
:103830008327C4FD9C4313C7F7FFB7070140938755
:103840000740758FD8C78327C4FD9847C147631FBA
:10385000F702B70701409387074094478327C4FDC9
:103860009843B707014093870740558F98C7B7071C
:10387000014093870740D4478327C4FD9843B70787
:10388000014093870740558FD8C7B1A8B7070140BB
:10389000938707402326F4FE8327C4FD9C47032714
:1038A000C4FEBA972326F4FE8327C4FE94438327DD
:1038B000C4FD98438327C4FE558F98C32DA083274A
:1038C000C4FDDC430327C4FEBA972326F4FE8327F6
:1038D000C4FE94438327C4FD9C4313C7F7FF83278B
:1038E000C4FE758F98C30100325445618280011176
:1038F00022CE00102326A4FEB7070140938707407D
:103900000327C4FED8CB01007244056182800111F7
:1039100022CE00102326A4FEAE87A305F4FE0347A3
:10392000B4FE9D4763F5E7009D47A305F4FEB7E6A7
:1039300000E08347B4FE960713F7F70F8327C4FE12
:10394000B6972380E7400100724405618280797157
:1039500006D622D40018232EA4FC03A7418785474E
:10396000631DF7048327C4FD983385476316F70268
:103970008327C4FD9C233E878327C4FDBC23960771
:10398000E207E18793E707F8E207E18793F7F70F8C
:10399000BE853A85AD3F15A08327C4FD9C3391EFCA
:1039A0008327C4FD9C233E878327C4FDBC23960741
:1039B00093F7F70FBE853A85993F8327C4FDDC4313
:1039C0009DC78327C4FD9C232326F4FE8327C4FEC2
:1039D000FD8B0547B316F70037E700E08327C4FEE9
:1039E0009583938707048A07BA9794C335A08327E2
:1039F000C4FD9C232324F4FE832784FEFD8B05470E
:103A0000B316F70037E700E0832784FE958393879A
:103A100007068A07BA9794C30100B2502254456141
:103A20008280011122CE00102326A4FE2324B4FE9E
:103A3000832784FE99CBB7170240944FB7170240F3
:103A40000327C4FE558F98CF21A8B7170240944F83
:103A50008327C4FE13C7F7FFB7170240758F98CFAF
:103A60000100724405618280411122C63AC43EC2FF
:103A70000008B7F700E0D843B7F700E0799BD8C358
:103A800083A781871387170023ACE18683A7C187AB
:103A900099C783A7C1871387F7FF23AEE18683A762
:103AA000018899C783A701881387F7FF23A0E188BE
:103AB00001003244224792474101730020304111F6
:103AC00022C636C43AC23EC00008B74701409387B9
:103AD00007809E23C207C18393F70702A1CB938778
:103AE00041D1DA2BCD4763EFE702B7470140938717
:103AF0000780DE23139707014183938741D1DE2B93
:103B0000BE861377F70F938741D1B69798A3938713
:103B100041D1DE2B8507139707014183938741D15C
:103B2000DAAB29A0938741D1239A0700B747014018
:103B3000938707809E23C207C183C18B85C3B74784
:103B4000014093870780DE23938741D1DA2B938747
:103B500041D1FAAB938741D1239A07000100324447
:103B6000A24612478247410173002030411122C60C
:103B700036C43AC23EC00008B747004093870740AA
:103B80009E23C207C18393F70702A1CB9387C1D2BB
:103B9000DA2BCD4763EFE702B74700409387074032
:103BA000DE231397070141839387C1D2DE2BBE86A4
:103BB0001377F70F9387C1D2B69798A39387C1D293
:103BC000DE2B85071397070141839387C1D2DAABB8
:103BD00029A09387C1D2239A0700B7470040938753
:103BE00007409E23C207C183C18B85C3B7470040EE
:103BF00093870740DE239387C1D2DA2B9387C1D204
:103C0000FAAB9387C1D2239A070001003244A2463F
:103C100012478247410173002030411122C636C449
:103C20003AC23EC00008B7570040938707809E23E2
:103C3000C207C18393F70702A1CB938741D4DA2B44
:103C4000CD4763EFE702B757004093870780DE2335
:103C5000139707014183938741D4DE2BBE861377E8
:103C6000F70F938741D4B69798A3938741D4DE2B5F
:103C70008507139707014183938741D4DAAB29A0C5
:103C8000938741D4239A0700B75700409387078052
:103C90009E23C207C183C18B85C3B757004093875A
:103CA0000780DE23938741D4DA2B938741D4FAAB84
:103CB000938741D4239A070001003244A246124759
:103CC0008247410173002030411122C63AC43EC2EE
:103CD0000008B7070040938707409E2BC207C183A7
:103CE000858B8DC3B7070040938707409E2B1397A2
:103CF00007014183B707004093870740799B42073C
:103D000041839AAB0100324422479247410173003C
:103D10002030011122CE00102326A4FEAE87A30579
:103D2000F4FE0347B4FE9D4763F5E7009D47A305F6
:103D3000F4FEB7E600E08347B4FE960713F7F70FEB
:103D40008327C4FEB6972380E740010072440561D3
:103D50008280411122C60008B7170240984FB7175A
:103D600002401367470098CFB7170240984FB71724
:103D700002401367170098CFB7070140D443B70735
:103D80000140370700F97D17758FD8C3B717014079
:103D900093870780596798CFB717014093870780AB
:103DA000196798CFB717014093870780596798CF55
:103DB000B7170140938707809C4F010032444101AF
:103DC0008280411122C60008B71702409843B717F6
:103DD00002401367170098C30100B71702409C43C5
:103DE000898BE5DFB71702409443B71702403707C6
:103DF000FCFF7D17758F98C3B71702409443B71720
:103E000002404167558F98C30100B717024098439D
:103E1000B7070200F98FF5DBB71702409443B717D5
:103E2000024037070800558F98C3B7170240DC439C
:103E300013F7C7FFB717024013671700D8C3B717A8
:103E400002409443B7170240370700FF7D17758F74
:103E500098C3B7170240DC4313F7F7F0B7170240D7
:103E600013670708D8C3B7270240944BB72702400F
:103E7000370700FE7D17758F98CBB7170240DC43DC
:103E800013F7F78FB717024013670740D8C3B71768
:103E90000240D443B717024071771307F77F758F3D
:103EA000D8C3B7170240D843D177FD17B376F700D0
:103EB000B71702402167558FD8C3B7170240D443C4
:103EC000B717024001777D17758FD8C3B717024027
:103ED000D443B71702404167558FD8C3B717024084
:103EE000D443B717024037073C00558FD8C3B717E4
:103EF0000240D843B70740FFFD17B376F700B71766
:103F0000024037078000558FD8C3B7170240D84307
:103F1000B70700F9FD17B376F700B7170240370768
:103F20000006558FD8C3B71702409443B717024015
:103F300037070001558F98C3B7170240DC4313F7CA
:103F4000C7FFB717024013672700D8C30100B71790
:103F500002409843B7070002F98FF5DB01003244B5
:103F600041018280011106CE22CC0010B7F700E09B
:103F70009843B7F700E0799B98C3B7F700E0984300
:103F8000B7F700E01367270098C3B7F700E098433E
:103F9000B7F700E06D9B98C3B7F700E09843B7F719
:103FA00000E01367870098C3B7F700E09843B7F7BE
:103FB00000E01367070198C3B7F700E09843B7F72D
:103FC00000E01367070298C337F700E0896793871B
:103FD000773201481CCB232A0701B1472326F4FE80
:103FE0008327C4FEFD8B0547B316F70037E700E0D3
:103FF0008327C4FE9583938707048A07BA9794C3DF
:104000009D453145EFF0FFD0B7F700E09843B7F793
:1040100000E01367170098C30100F2406244056195
:104020008280011122CE00102326A4FE0327C4FEA5
:1040300023AEE186010083A7C187F5FF010072442A
:1040400005618280797122D60018232EA4FCAE87E8
:104050003687A30DF4FCB287230DF4FCBA87A30CBA
:10406000F4FCA30704FE8347A4FD89C70547638EBC
:10407000E702A5A88347B4FD8A07A307F4FE8327B8
:10408000C4FD98438347F4FE8D46B397F60093C76B
:10409000F7FFF98F834694FD0347F4FE3397E6005C
:1040A0005D8F8327C4FD98C389A08347B4FDE117C2
:1040B000A30DF4FC8347B4FD8A07A307F4FE83270E
:1040C000C4FDD8438347F4FE8D46B397F60093C7EB
:1040D000F7FFF98F834694FD0347F4FE3397E6001C
:1040E0005D8F8327C4FDD8C30100010032544561B0
:1040F0008280797106D622D40018232EA4FCAE87C4
:104100003287A30DF4FCBA87230DF4FCA30704FE49
:104110000347B4FD9D4763E5E700A30704FE21A024
:104120008547A307F4FE8347A4FD89EF0347F4FE08
:104130008347B4FD81463A86BE850325C4FDEFF072
:104140007FF09DA00347A4FD8547631EF70003474A
:10415000F4FE8347B4FD85463A86BE850325C4FD3B
:10416000EFF05FEE91A00347A4FD8947631EF700BF
:104170000347F4FE8347B4FD89463A86BE8503258E
:10418000C4FDEFF03FEC0DA00347A4FD8D47631D78
:10419000F7000347F4FE8347B4FD8D463A86BE859B
:1041A0000325C4FDEFF01FEA0100B250225445611F
:1041B0008280011122CE00102326A4FEAE87328712
:1041C0002322D4FEA305F4FEBA872305F4FE834719
:1041D000B4FE89C70547638DE7029DA08327C4FE0F
:1041E0009843832744FE9C23BE868D47B397D70010
:1041F00093C7F7FFF98F0347A4FE832644FE94225A
:104200003317D7005D8F8327C4FE98C301000DA824
:104210008327C4FED843832744FE9C23BE868D4754
:10422000B397D70093C7F7FFF98F0347A4FE832600
:1042300044FE94223317D7005D8F8327C4FED8C372
:104240000100724405618280011106CE22CC00106B
:104250002326A4FE2324B4FE2320F4FEB287A30366
:10426000F4FEB6872303F4FEBA87A302F4FE834765
:1042700074FE05476387E70409476384E70863948E
:104280000714834764FE89C70547638FE70025AAA3
:10429000032704FE834754FEBA860146BE850325E4
:1042A000C4FEEFF01FF129A8032704FE834754FE44
:1042B000BA860546BE850325C4FEEFF09FEF0100D8
:1042C00019A2834764FE89C70547638FE700E5A805
:1042D000032704FE834754FEBA860946BE8503259C
:1042E000C4FEEFF01FED29A8032704FE834754FE08
:1042F000BA860D46BE850325C4FEEFF09FEB010094
:10430000D9A0834764FE0D47638CE7020D476346DF
:10431000F7000947638AE70075A01147638EE7023B
:1043200015476387E70679A8032704FE834754FEF1
:10433000BA860146BE850325C4FEEFF09FE759A06B
:10434000032704FE834754FEBA860546BE8503252F
:10435000C4FEEFF01FE6BDA0032704FE834754FE12
:10436000BA860946BE850325C4FEEFF09FE4832785
:10437000C4FED847832784FE9C23BE868547B39717
:10438000D70093C7F7FF7D8F8327C4FED8C71DA82A
:10439000032704FE834754FEBA860946BE850325DB
:1043A000C4FEEFF01FE18327C4FED847832784FEB5
:1043B0009C23BE868547B397D7005D8F8327C4FEB5
:1043C000D8C7010001000100F2406244056182800B
:1043D000797106D622D40018232EA4FCAE87A30D33
:1043E000F4FCB287230DF4FCB687A30CF4FCBA8767
:1043F000230CF4FCA30704FE0327C4FDB7170140F8
:1044000093870780631BF700B7170240984FB717D1
:1044100002401367470098CF51A00327C4FDB71788
:104420000140938707C0631BF700B7170240984FFE
:10443000B71702401367870098CF8DA00327C4FDEC
:10444000B7170140631BF700B7170240984FB71723
:1044500002401367070198CF91A00327C4FDB71747
:10446000014093870740631BF700B7170240984F3E
:10447000B71702401367070298CF0DA00327C4FDAA
:10448000B727014093870780631AF700B7170240E8
:10449000984FB71702401367070498CF8347B4FDBE
:1044A000034784FD3A86BE850325C4FDEFF07FC433
:1044B0000347B4FD9D4763EAE7028347B4FD8A07DB
:1044C00093F7F70F890793F7F70FA307F4FE930706
:1044D000F4FE834694FD0346A4FD9305B4FD014715
:1044E0000325C4FDEFF05FD63DA88347B4FDE11777
:1044F00093F7F70FA30DF4FC8347B4FD8A0793F7F6
:10450000F70F890793F7F70FA307F4FE9307F4FE5D
:10451000834694FD0346A4FD9305B4FD054703259A
:10452000C4FDEFF07FD20100B25022544561828079
:10453000411106C622C40008EFF0BF81EFF07F886A
:10454000EFF05FA20D4781460146B54537150140A2
:10455000EFF01FE8B7170140096798CBEFB01FBD18
:10456000EFD0EFB0EFB09FC203A741869547E31DA0
:10457000F7FEB71701403707002098CB8387C1D5D6
:1045800093F7F70F850793F7F70F13978701618765
:10459000238EE1D49387C1D58387170093F7F70F54
:1045A000850793F7F70F1397870161879387C1D525
:1045B00098B39387C1D58387270093F7F70F8507B3
:1045C00093F7F70F1397870161879387C1D5B8A336
:1045D0009387C1D58387370093F7F70F850793F744
:1045E000F70F1397870161879387C1D5B8B3938776
:1045F000C1D58387470093F7F70F850793F7F70F28
:104600001397870161879387C1D5D8A39387C1D5B5
:104610008387570093F7F70F850793F7F70F1397E3
:10462000870161879387C1D5D8B39387C1D5FC2310
:10463000850713F7F70F9387C1D5F8A31387C1D563
:10464000584361839387C1D59C4793F7F70FA2071F
:10465000D98FC207C18385071397070141839387C9
:10466000C1D59375F70FF433818A3686AE86D18E25
:10467000F4B321831316070141829827018BBA8670
:104680003287558F98A71387C1D558436183938785
:10469000C1D59C4793F7F70FA207D98F139707014E
:1046A00041839307F07F63FAE7009387C1D5F8331E
:1046B000018BF8B39827018B98A725469385C1D520
:1046C0000945EFD0CF944DB5AA87850703C7F7FFFB
:1046D0006DFF3385A7407D15828000001201100117
:1046E00000000040830410320001010203010000B9
:1046F00009022900010103803209040000020300BD
:104700000000092111010001224C000705010340AE
:104710000005070582034000050000001603300075
:1047200031003200330034003500360037003800E5
:104730003900000005010905A101093009310932DC
:104740000933093409351580257F950675088102DE
:1047500009396514150025073500463B019501759B
:1047600004810295047501810105091901290B15C0
:104770000025017501950B8102950575018101C028
:10478000B42D0000CC2D0000DC2D0000EC2D00002D
:08479000162E00004E2E000061
:10479800536F6C646572696E6769726F6E207370AF
:1047A80062203230323300000000000000000000B8
:1047B80000000000000000000000000000000000F1
:1047C80000000000000000000000000000000000E1
:1047D8004D7920437573746F6D20484944204761B3
:1047E8006D657061640000000000000000000000BA
:1047F80000000000000000000000000000000000B1
:1048080000000000000000000000000000000000A0
:104818000E037700630068002E0063006E0000003E
:104828000000000000000000000000000000000080
:104838000000000000000000000000000000000070
:104848000000000000000000000000000000000060
:104858000000000000000000000000000000000050
:104868000000000000000000000000000000000040
:104878000000000000000000000000000000000030
:104888000000000000000000000000000000000020
:10489800000000002803430048003300320056009F
:1048A8003200300078002D0043007500730074005A
:1048B8006F006D002000480049004400000000001F
:1048C80000000000000000000000000000000000E0
:1048D80000000000000000000000000000000000D0
:1048E80000000000000000000000000000000000C0
:1048F80000000000000000000000000000000000B0
:10490800000000000000000000000000000000009F
:10491800000000000000000082160000FC170000E4
:10492800821600008216000082160000821600001F
:10493800821600003617000082160000821600005A
:1049480082160000821600008216000082160000FF
:104958005A240000F4240000042400004C24000021
:10496800C0280000102A00008A2800004E270000F6
:104978007A270000A2270000000000004000000085
:1049880082160000B0230000821600008216000084
:1049980082160000F623000082160000E8230000BB
:1049A800D4230000600200200400000080000020E2
:1049B8000E00000004010020280000001C47000031
:1049C800160000000000000003010000DC460000A3
:1049D80012000000F04600002900000034470000E3
:1049E8004C00000002470000090000000100000020
:0849F8000403090400000000A3
:00000001FF
